:100000000C94DC000C9404010C9404010C94040185
:100010000C9404010C9404010C9404010C9404014C
:100020000C9404010C9404010C94B80A0C94270B52
:100030000C9404010C9404010C9404010C9404012C
:100040000C9404010C94560E0C9404010C940401BD
:100050000C9404010C9404010C9404010C940C0EF7
:100060000C9404010C94DA0D0C94B40D0C9404015E
:100070000C9404010C9404010C9404010C940401EC
:100080000C94590D0C9404010C9404010C9404017B
:100090000C9404010C9404010C9404010C940401CC
:1000A0000C9404010C9404010C940401030706054C
:1000B000040100080A0B0C0D0900000000240027B1
:1000C000002A002D00300000000000250028002B31
:1000D000002E003100000000002300260029002C23
:1000E000002F0004040404040304050202020204B5
:1000F00003020202020606060606060404020202C3
:100100000404040802011040804010204080408018
:10011000080204018040201002011080102040409D
:10012000200000000200090F0000030401000C0081
:1001300000000000000000000000000000000000BF
:10014000080B000202020000090400000102020084
:100150000005240010010524010101042402060504
:100160002406000107058103100040090401000274
:100170000A00000007050202400000070583024054
:1001800000000403090412010002EF0201404123B0
:10019000368000010102030141726475696E6F20AF
:1001A0004C4C430041726475696E6F204C656F6EF4
:1001B0006172646F0000D00E11241FBECFEFDAE031
:1001C000DEBFCDBF11E0A0E0B1E0E8EBFFE302C08D
:1001D00005900D92AA34B107D9F723E0AAE4B1E063
:1001E00001C01D92AC37B207E1F710E0CCEDD0E0D2
:1001F00004C02197FE010E94921ECB3DD107C9F792
:100200000E94AF110C94DA1F0C940000CF92DF9281
:10021000EF92FF920F931F93CF93DF93D901E801E1
:100220006A01F9014217530714F06901FA018823A2
:1002300009F440C0CB016C157D050CF4C6019F018B
:100240008E179F070CF49C01A417B50734F4CF0157
:10025000821B930B9C012C0D3D1D0D2C000CEE08F8
:10026000FF08032E000C440B550B2C193D094E09B9
:100270005F09AEEFBFEF0E94091C9F01FF0F440B07
:10028000550B2C193D094E095F090E94EA1BDA0142
:10029000C9018F5F9F47A109B1098883998382E0D3
:1002A00090E0DF91CF911F910F91FF90EF90DF9041
:1002B000CF90089590E080E0F4CFFC0180912E0271
:1002C000882311F13FB7F89482E08093E9002091F0
:1002D000F200822F90E01816190614F481E090E0E5
:1002E000882339F0289844E640932D024091F1008C
:1002F0004083222339F02091F200211103C02BE624
:100300002093E8003FBF08958FEF9FEF0895CF93AC
:10031000DF931F92CDB7DEB76983DC01ED91FC91CD
:100320000280F381E02D41E050E0BE016F5F7F4F1E
:1003300009950F90DF91CF91089583E08093E900B4
:100340008091F200882319F08AE38093E8000895F1
:10035000CF93DF931F92CDB7DEB7FC0184859585DF
:1003600097FD08C02FEF3FEF358724870F90DF916F
:10037000CF910895CE0101960E945D01019719F475
:10038000898190E0F3CF8FEF9FEFF0CF0F931F9312
:10039000CF93DF931F92CDB7DEB78C01FC0184852C
:1003A000958597FF0BC0CE0101960E945D010197D4
:1003B00071F4898190E0F80195878487F80184853C
:1003C00095850F90DF91CF911F910F9108958FEF39
:1003D0009FEFF1CFFC018485958597FD0BC09FB7FA
:1003E000F89482E08093E9008091F2009FBF90E052
:1003F000019608959FB7F89482E08093E900809178
:10040000F2009FBF90E008954091AB015091AC0184
:100410002091A9013091AA0142175307B4F4909199
:10042000E8009570E1F39091E80092FD19C0809387
:10043000F1008091AB019091AC0101968F739927E7
:10044000892B19F48EEF8093E8008091AB01909195
:10045000AC0101969093AC018093AB0181E00895CB
:1004600080E00895EF92FF920F931F93CF93DF9355
:10047000F82E192FE62E042F81E0860F880F0E9498
:10048000040283E00E940402CF2DD12FEC0EFD2E3A
:10049000F11CCE15DF05B9F007FF13C0FE018491F2
:1004A0000E940402182F80E00E94040281232196FA
:1004B0008111EFCFDF91CF911F910F91FF90EF90BE
:1004C00008958881EDCF81E0F5CFDF92EF92FF9222
:1004D0000F931F93CF93DF93D82E8A01EB017B01FB
:1004E000E40EF51ECE15DF0559F0D7FE12C0FE0151
:1004F00084910E94040221968111F4CF0FEF1FEF27
:10050000C801DF91CF911F910F91FF90EF90DF9085
:1005100008958881EECF2FB7F89487708093E90013
:100520009091E800892F807295FF04C09091F200AD
:1005300080E4891B2FBF089583E00E948B0290E026
:100540000895615030F02091F100FC012083019664
:10055000F8CF289884E680932D020895AF92BF9239
:10056000CF92DF92EF92FF920F931F93CF93DF937F
:100570006C017B018B01040F151FEB015E01AE18AE
:10058000BF08C017D10759F06991D601ED91FC91D0
:100590000190F081E02DC6010995892B79F7C501FD
:1005A000DF91CF911F910F91FF90EF90DF90CF904F
:1005B000BF90AF90089580919A0181110DC082E0A3
:1005C0008093960184E08093970110929901109294
:1005D000980181E080939A0186E991E008950F9354
:1005E0001F93CF93DF931F92CDB7DEB782E089834D
:1005F00042E450E060E471E080E80E9465020E94FD
:10060000DB02DC0112960D911C910115110589F098
:10061000D801ED91FC910280F381E02DBE016F5F66
:100620007F4FC801099597FD04C0F8010085118529
:10063000ECCF89810F90DF91CF911F910F91089599
:10064000FC01538D448D252F30E0842F90E0821BD8
:10065000930B541710F0CF96089501970895FC015D
:10066000918D828D981761F0A28DAE0FBF2FB11DB5
:100670005D968C91928D9F5F9F73928F90E008950D
:100680008FEF9FEF0895FC01918D828D981731F0C7
:10069000828DE80FF11D858D90E008958FEF9FEF1B
:1006A0000895FC01918D228D892F90E0805C9F4FF1
:1006B000821B91098F73992708958FE792E00E941A
:1006C000510321E0892B09F420E0822F089580E076
:1006D00090E0892B29F00E945D0381110C940000A9
:1006E0000895FC01A48DA80FB92FB11DA35ABF4FC7
:1006F0002C91848D90E001968F739927848FA68921
:10070000B7892C93A089B1898C9182748C93938D35
:10071000848D981306C00288F389E02D80818F7D37
:1007200080830895EF92FF920F931F93CF93DF93EF
:10073000EC0181E0888F9B8D8C8D981319C0E8891E
:10074000F989808185FF14C09FB7F894EE89FF89ED
:100750006083E889F9898081827480839FBF81E00A
:1007600090E0DF91CF911F910F91FF90EF9008954E
:10077000F62E0B8D10E00F5F1F4F0F731127E02E29
:100780008C8D8E110CC00FB607FCFACFE889F98961
:10079000808185FFF5CFCE010E947103F1CFEB8DF3
:1007A000EC0FFD2FF11DE35AFF4FF0829FB7F89435
:1007B0000B8FEA89FB8980818062CFCFCF93DF9353
:1007C000EC01888D8823B9F0AA89BB89E889F98969
:1007D0008C9185FD03C0808186FD0DC00FB607FC9E
:1007E000F7CF8C9185FFF2CF808185FFEDCFCE01D1
:1007F0000E947103E9CFDF91CF91089581508F302E
:1008000008F047C0E82FF0E0E85FFB4F0C94921E21
:100810002504290417041D0421044904490449043A
:100820002C04320436043A04400449044404809100
:1008300080008F77809380000895809180008F7D65
:10084000F9CF80918000877FF5CF84B58F7784BD05
:10085000089584B58F7DFBCF809190008F77809332
:1008600090000895809190008F7DF9CF8091900045
:10087000877FF5CF8091C0008F778093C000089567
:100880008091C0008F7DF9CF8091C200877F8093D7
:10089000C2000895CF93DF93282F30E0F901EF5D78
:1008A000FE4F8491F901EE5FFE4FD491F901ED51B5
:1008B000FF4FC491CC23A1F081110E94FE03EC2FC5
:1008C000F0E0EE0FFF1FEB52FF4FA591B491EC91BA
:1008D000ED2381E090E009F480E0DF91CF9108956D
:1008E00080E090E0FACF1F93CF93DF93282F30E082
:1008F000F901EF5DFE4F8491F901EE5FFE4FD49157
:10090000F901ED51FF4FC491CC23A9F0162F8111AD
:100910000E94FE03EC2FF0E0EE0FFF1FE953FF4FA4
:10092000A591B4918FB7F894EC91111108C0D095AE
:10093000DE23DC938FBFDF91CF911F910895DE2BD3
:10094000F8CFCF93DF9390E0FC01EE5FFE4F249150
:100950008D519F4FFC0184918823D1F090E0880F46
:10096000991FFC01E754FF4FA591B491FC01E95395
:10097000FF4FC591D491623071F49FB7F8943C91C8
:10098000822F809583238C93E8812E2B28839FBF11
:10099000DF91CF9108958FB7F894EC912E2B2C9383
:1009A0008FBFF6CF8251E82FF0E0E355FF4FE4917F
:1009B00090917B008E2F880F880F80729F7D892BEE
:1009C00080937B00E770E064E0937C0080917A0084
:1009D000806480937A0080917A0086FDFCCF8091BC
:1009E00078009091790008953FB7F8948091920132
:1009F00090919301A0919401B091950126B5A89B87
:100A000005C02F3F19F00196A11DB11D3FBFBA2FA0
:100A1000A92F982F8827BC01CD01620F711D811D60
:100A2000911D42E0660F771F881F991F4A95D1F7E5
:100A300008958F929F92AF92BF92CF92DF92EF92E2
:100A4000FF926B017C010E94F4044B015C01C11414
:100A5000D104E104F104B9F00E94F40468197909A1
:100A60008A099B09683E73408105910580F321E066
:100A7000C21AD108E108F10888EE880E83E0981EBA
:100A8000A11CB11CE4CFFF90EF90DF90CF90BF90FE
:100A9000AF909F908F9008957F928F929F92AF9288
:100AA000BF92CF92DF92EF92FF920F931F93CF935B
:100AB000DF93C82E8B017A0180912E02811110C024
:100AC0008FEF9FEFDF91CF911F910F91FF90EF90EC
:100AD000DF90CF90BF90AF909F908F907F900895C0
:100AE0008091AF0180FF05C08091E000826080931B
:100AF000E000CE2DDF2DD12C8AEFB82E8C2D877003
:100B0000982E8C2D8072882E8C2D8074782E9AE3EE
:100B1000A92E209719F4DD2009F452C08C2D0E94D3
:100B20008B0281110AC0BA94BB2051F261E070E0DF
:100B300080E090E00E941905ECCF8C171D0611F0A3
:100B40000CF08C2F9FB7F8949092E9002091E80068
:100B500025FD02C09FBFDDCF282F30E0C21BD30B85
:100B6000882029F08150A0F01092F100FBCFF8010D
:100B7000C7FC0AC0815050F041914093F100FACF78
:100B800044914093F10031968150D0F7020F131F2A
:100B9000DD2021F0A092E800D12CDCCF8091E8008C
:100BA00085FD07C0A092E800DD24D394209791F240
:100BB000F3CF209779F6772069F2A092E800CACFA8
:100BC0005D9884E68093AE01C7017CCFCF93DF931D
:100BD000EC0180911301882331F083E00E944C05E1
:100BE0001816190634F081E090E09B838A8380E038
:100BF00090E0DF91CF910895DC01FB0112962C91DA
:100C00001297848195812817190641F4918180817A
:100C1000813A31F49D7F81E0913009F080E00895C0
:100C20008132E1F79B3029F482811F968C9381E019
:100C300008959A3099F7828150968C93F8CFDC0111
:100C4000FB0188E4808389E4818384E482831D96A8
:100C50009C911D979F709F5B93831D968D919C9196
:100C600024E0969587952A95E1F78F708F5B8483B2
:100C700085E00895EF92FF920F931F93CF93DF9338
:100C8000FB012081213889F52381223271F5DC01B5
:100C900012964C91248135814217130631F58C014F
:100CA000FC01C385D485F12CE12C209791F04C8177
:100CB0005D816A817B818E81811180E80E9465025D
:100CC0008F3F980759F0E80EF91E0990D881C02D82
:100CD000ECCF81E0D8011F968C93C701DF91CF91B3
:100CE0001F910F91FF90EF90089590E080E0F6CF74
:100CF000CF93DF93CDB7DEB769970FB6F894DEBF19
:100D00000FBECDBFFC01DB018C918F5F8C939E01E8
:100D10002D5F3F4F8DE0D9011D928A95E9F729E0BB
:100D2000298384E08A8391E09D8383E08E832A87F0
:100D300021E22B879C879D879F8722E2288B27E0D3
:100D40002B8B25E02C8B8E8B20E430E0388F2F8B83
:100D5000998F82818B8395858685998B8A8B8381F8
:100D600080688D8B49E150E0BE016F5F7F4F80E06E
:100D70000E94650269960FB6F894DEBF0FBECDBF24
:100D8000DF91CF910895CF93DF9380916F0181110F
:100D900067C081E0809362018093630128E631E0BF
:100DA00030936501209364011092670110926601EF
:100DB0002EE131E030935F0120935E0110926A01D1
:100DC0001092690110926C0110926B0180936D0179
:100DD00080936E0181EC809368010E94DB02FC012C
:100DE000818190916201482F490F5527551F483046
:100DF00051059CF5A281B381109709F52EE531E0EC
:100E0000338322832081209360018093610180914C
:100E10006301820F808320916401A22FB09165014C
:100E20008A2F821B8917C8F481813D91C82FD0E099
:100E3000CF5FDE4F38838F5F8183F2CFD901189661
:100E40002D913C91199721153105C1F72EE531E01F
:100E500019963C932E931897D5CF81E080936F011C
:100E60008EE591E0DF91CF9108950F931F93CF937B
:100E70008C0160E082E00E94730480910001833065
:100E800041F18F3F09F453C0B80190E080E00E9427
:100E9000190580910001833089F4ECEAF0E0E491D7
:100EA0008FEF80930001E13009F433C108F42EC1C3
:100EB000E33009F434C1E43009F437C160E083E081
:100EC0000E94730461E082E0CF911F910F910C9416
:100ED0007304ECEAF0E0C491C7FDD6CF61E083E093
:100EE0000E94A104CC2309F4B2C0C23069F2C1301F
:100EF00009F0C4C080918100887F81608093810067
:100F00008FE39FE190938900809388008FEF9FEF9C
:100F1000DC018093560190935701A0935801B09340
:100F2000590180916F00826080936F00ADCF83E0A4
:100F300080930001ECEAF0E0C491CF3F09F4A4CF24
:100F4000C13039F168F0C33009F441C0C43009F44C
:100F500060C0C7FD99CF61E083E00E94A104C5CFC6
:100F600014BC15BC84B5826084BD85B5816085BD27
:100F7000E6EEF0E0E491F0E0EE0FFF1FE953FF4FE3
:100F800085919491E5E0F1E0E491E0935101C0E0B6
:100F9000A5CF10928000109281008091810088601E
:100FA0008093810080918100816080938100E6EED2
:100FB000F0E0E491F0E0EE0FFF1FE953FF4F859161
:100FC0009491E5E0F1E0E491E093500187CF109235
:100FD0009000109291008091910088608093910020
:100FE00080919100816080939100E6EEF0E0E491C1
:100FF000F0E0EE0FFF1FE953FF4F8591949190931E
:10100000A3018093A201E5E0F1E0E491E093A40163
:1010100065CF1092C0001092C1008091C10088601D
:101020008093C1008091C10081608093C100E6EE91
:10103000F0E0E491F0E0EE0FFF1FE953FF4F8591E0
:101040009491E5E0F1E0E491E0934F0147CF85B55D
:10105000887F836085BD8CE787BD8FEF9FEFDC01C4
:1010600080935A0190935B01A0935C01B0935D0162
:1010700080916E00826080936E0006CFC330E9F4E9
:1010800080919100887F8160809391008FE39FE140
:1010900090939900809398008FEF9FEFDC018093ED
:1010A000A5019093A601A093A701B093A8018091F8
:1010B0007100826080937100E7CEC430D1F48091DA
:1010C000C100887F81608093C1008FE38093CF004F
:1010D0008FEF9FEFDC018093520190935301A09317
:1010E0005401B09355018091720080648093720026
:1010F000CBCEC13009F404CF24F4C111C5CE8FE3A7
:10110000ABCFC33019F2C43001F3BECE10926E00E3
:10111000D5CE80916F008D7F80936F00CFCE809170
:1011200071008D7F80937100C9CE809172008F7B9A
:1011300080937200C3CE8F929F92AF92BF92CF9254
:10114000DF92EF92FF920F931F93CF93DF93CDB770
:10115000DEB7ADB6BEB6809177032DB73EB7281B7C
:1011600031090FB6F8943EBF0FBE2DBF8DB79EB7A5
:1011700001966C01E0903E03F12C80913A0390912E
:101180003B03D601FC019F01281B390B2E153F059F
:101190001CF421912D93F7CF80913F03882359F1BF
:1011A000809136039091370328E097FD09C068E6E7
:1011B00071E00E947E1E6DE270E00E947E1E262F6E
:1011C000809138039091390368E097FD08C068E684
:1011D00071E00E947E1E6DE270E00E947E1EF601AC
:1011E000EE0DFF1D90E1699FB0011124262B208395
:1011F000F70131967F0186010E0D1F1D20914403DA
:1012000030914503409142035091430360911C0388
:1012100070911D038091400381700E940601E80EC9
:10122000F91E86010E0D1F1D2091480330914903C0
:10123000409146035091470360911E0370911F0334
:1012400080914003869581700E940601E80EF91E88
:1012500086010E0D1F1D20914C0330914D034091CE
:101260004A0350914B0360912003709121038091B8
:10127000400382FB882780F90E940601E80EF91ED0
:1012800086010E0D1F1D2091500330915103409196
:101290004E0350914F03609122037091230380917C
:1012A000400383FB882780F90E940601E80EF91E9F
:1012B00086010E0D1F1D209154033091550340915E
:1012C0005203509153036091240370912503809140
:1012D0004003829581700E940601E80EF91E860186
:1012E0000E0D1F1D20915803309159034091560354
:1012F000509157036091260370912703809140031A
:1013000085FB882780F90E940601E80EF91E8601F8
:101310000E0D1F1D20915C0330915D0340915A0317
:1013200050915B03609128037091290380914003E1
:1013300086FB882780F90E940601E80EF91E8601C7
:101340000E0D1F1D209160033091610340915E03DB
:1013500050915F0360912A0370912B0380914003A9
:10136000881F8827881F0E940601E80EF91E860143
:101370000E0D1F1D2091640330916503409162039F
:101380005091630360912E0370912F03809141036C
:1013900081700E940601E80EF91E86010E0D1F1DC8
:1013A000209168033091690340916603509167036F
:1013B00060912C0370912D0380914103869581707B
:1013C0000E940601E80EF91E86010E0D1F1D2091D8
:1013D0006C0330916D0340916A0350916B036091EF
:1013E0003003709131038091410382FB882780F99B
:1013F0000E940601E80EF91E86010E0D1F1D2091A8
:1014000070033091710340916E0350916F036091AE
:101410003203709133038091410383FB882780F965
:101420000E9406018E0D9F1D8601080F191F209135
:10143000740330917503409172035091730360916E
:1014400034037091350380914103829581700E942D
:1014500006010E94C3064C014091770380917603F8
:1014600050E07A01FFEFEF1AFF0A2DB73EB72E19B1
:101470003F090FB6F8943EBF0FBE2DBF0DB71EB784
:101480000F5F1F4FEDB7FEB78183B601C80101960C
:101490000E94D11FF4018381A701B80180640E94DA
:1014A0004C050FB6F894BEBE0FBEADBEDF91CF9116
:1014B0001F910F91FF90EF90DF90CF90BF90AF9072
:1014C0009F908F900895282F80913D0361111BC03C
:1014D000281768F5E0913A03F0913B0381E090E032
:1014E000A0E0B0E004C0880F991FAA1FBB1F2A9577
:1014F000D2F7809590818923808380913C03882353
:10150000B1F00C949B08281790F4E0913A03F09105
:101510003B0381E090E0A0E0B0E004C0880F991F99
:10152000AA1FBB1F2A95D2F72081822BE5CF0895F1
:101530001F93CF93DF93EC010E94D41B182FCE0191
:1015400001960E94D41B982F812FDF91CF911F917C
:1015500008951F93CF93DF93EC01172F0E94DC1B9C
:10156000612FCE010196DF91CF911F910C94DC1B6E
:101570001F920F920FB60F9211248F939F93809119
:10158000E1009091E100937F9093E10083FF0FC011
:101590001092E90091E09093EB001092EC0092E33E
:1015A0009093ED0010922E0298E09093F00082FF4D
:1015B00022C093E09093E9009091F200992319F0F2
:1015C0009AE39093E8009091AE01992341F09091B5
:1015D000AE0191509093AE01911101C05D9A90912E
:1015E0002D02992341F090912D02915090932D025C
:1015F000911101C0289A84FF18C08091E2008E7E6C
:1016000081608093E2008091E1008F7E8093E10011
:101610008091AF018E7E80618093AF019F918F9109
:101620000F900FBE0F901F90189580FFF7CF8091FD
:10163000E2008E7E80618093E2008091E1008E7EE8
:101640008093E1008091AF018E7E8160E5CF1F9293
:101650000F920FB60F921124CF92DF92EF92FF926A
:101660000F931F932F933F934F935F936F937F93AA
:101670008F939F93AF93BF93EF93FF93CF93DF939A
:10168000CDB7DEB76C97DEBFCDBF1092E900809179
:10169000E80083FF25C068E0CE0145960E94A102C4
:1016A00082EF8093E8008D8987FF39C09091E80030
:1016B00090FFFCCF982F907609F034C19E894F8916
:1016C000588D2F89F88C911131C0803861F5809147
:1016D000B0018093F1001092F1008EEF8093E8004A
:1016E0006C960FB6F894DEBF0FBECDBFDF91CF91E1
:1016F000FF91EF91BF91AF919F918F917F916F91EA
:101700005F914F913F912F911F910F91FF90EF901B
:10171000DF90CF900F900FBE0F901F9018959EEF07
:101720009093E800C7CF1092F100D5CF913059F4D3
:101730008111D3CF4130510581F68091B0018D7F69
:101740008093B001CACF933049F48111C6CF4130A4
:10175000510519F68091B0018260F2CF953041F4C5
:101760008091E80080FFFCCF20682093E300B5CF94
:10177000963009F0A9C00B8D1C8D22E01092E90073
:101780001092AC011092AB01F2122EC01092AA017D
:101790001092A9010E94EF021F8299E09983FA82B8
:1017A00091E09E8390EA98879AEF99872091AB0108
:1017B0003091AC01275F3F4F3C832B838D83109288
:1017C000E9001092AC011092AB011093AA010093B2
:1017D000A90149E050E0BE016F5F7F4F80E00E94A9
:1017E00065020E94EF0279CF1093AA010093A9012C
:1017F0000E94DB02DC0112960D911C91011511056E
:1018000009F451C1D801ED91FC910480F581E02DDE
:10181000BE016B5E7F4FC8010995009709F03EC17C
:10182000F80100851185EACFF3E0FF120EC08F8921
:10183000882309F440C0823061F440E860E184EA22
:1018400091E00E943202811148CF81E28093EB0047
:1018500047CF813029F440E86BE088E991E0F1CF8F
:10186000833099F70E94DB02DC011296ED90FC9028
:101870008E010F5F1F4F6801E114F10479F0D70169
:10188000ED91FC910680F781E02DB801C701099523
:10189000080F111DF701E084F184EECFD8011C92EE
:1018A000F60101900020E9F73197BF016C197D091D
:1018B00040E0C601C6CF62E871E0FB01449150E010
:1018C00080E80E94650209CF973009F4BECF9830B6
:1018D00021F481E08093F10000CF993009F0FDCE32
:1018E000837009F0B2CFE2E0F1E081E031E096E30D
:1018F0002191222371F08093E9003093EB00DF0106
:1019000011972C912093EC009093ED008F5F87301E
:1019100079F78EE78093EA001092EA008F8980932E
:101920002E02DBCE8B8D9C8D1092E9001092AC01C3
:101930001092AB019093AA018093A901898D811126
:1019400092C08E899D89913A49F4813209F07DCF08
:1019500047E050E06CE071E080E0B3CF913209F0F5
:1019600074CF833269F48F89988DB0E0A0E08093C2
:10197000080190930901A0930A01B0930B01ADCE29
:10198000803269F48091E80082FFFCCF67E08CE050
:1019900091E00E94A1028BEF8093E8009ECE8232FC
:1019A00009F09BCE8F8980931301EEEFFFE78591BD
:1019B00094918B3F9C4D51F1E0E0F8E080910C0157
:1019C00090910D01A0910E01B0910F01803B9440C8
:1019D000A105B105F1F48091130180FD1AC0EE3F1D
:1019E0008AE0F80789F587E797E7918380838091FC
:1019F00060008093AD0188E19BE00FB6F894A89554
:101A0000809360000FBE9093600067CEEEEFFAE027
:101A1000D5CF808191818737974709F05ECEA89511
:101A2000809160008861809360008091AD01809317
:101A30006000EE3F2AE0F20789F08091FE0A909163
:101A4000FF0A9183808349CE8081918187379807EF
:101A500051F29093FF0A8093FE0AC5CF1092FF0ABD
:101A60001092FE0A3ACE0E94DB02DC0112960D9122
:101A70001C910115110509F4E8CED801ED91FC91F6
:101A80000190F081E02DBE016B5E7F4FC80109958A
:101A9000811123CEF80100851185EBCF18161906A8
:101AA0000CF41BCED2CEF1E0FF12BECE66E871E0A0
:101AB00004CF1F920F920FB60F9211248F939F9312
:101AC000AF93BF93EF93FF938091A5019091A601EF
:101AD000A091A701B091A801892B8A2B8B2BA1F192
:101AE0009091A401E091A201F091A3018081892746
:101AF00080838091A5019091A601A091A701B0914A
:101B0000A801181619061A061B069CF48091A50157
:101B10009091A601A091A701B091A8010197A109F8
:101B2000B1098093A5019093A601A093A701B0935A
:101B3000A801FF91EF91BF91AF919F918F910F906D
:101B40000FBE0F901F901895809171008D7F80932C
:101B500071008091A401E091A201F091A301908114
:101B6000809589238083E5CF1F920F920FB60F9245
:101B700011242F933F934F935F936F937F938F9392
:101B80009F93AF93BF93EF93FF938FE792E00E94F1
:101B90007103FF91EF91BF91AF919F918F917F91D1
:101BA0006F915F914F913F912F910F900FBE0F90CA
:101BB0001F9018951F920F920FB60F9211242F931A
:101BC0008F939F93EF93FF93E0918F02F091900298
:101BD0008081E0919502F091960282FD1BC0908178
:101BE000809198028F5F8F7320919902821741F044
:101BF000E0919802F0E0E158FD4F958F80939802B4
:101C0000FF91EF919F918F912F910F900FBE0F90A9
:101C10001F9018958081F4CF1F920F920FB60F92EC
:101C200011242F933F938F939F93AF93BF938091F2
:101C3000B1019091B201A091B301B091B401309182
:101C4000910123E0230F2D3758F50196A11DB11DF9
:101C5000209391018093B1019093B201A093B301BD
:101C6000B093B4018091920190919301A09194015D
:101C7000B09195010196A11DB11D809392019093A1
:101C80009301A0939401B0939501BF91AF919F915F
:101C90008F913F912F910F900FBE0F901F9018952D
:101CA00026E8230F0296A11DB11DD2CF1F920F92DD
:101CB0000FB60F9211242F933F934F935F936F931F
:101CC0007F938F939F93AF93BF93EF93FF93109264
:101CD00085001092840080919001882311F161E0C9
:101CE00080918F010E94730488EE93E090938900A5
:101CF000809388008091900191E0892780939001E2
:101D0000FF91EF91BF91AF919F918F917F916F91D3
:101D10005F914F913F912F910F900FBE0F901F90A9
:101D2000189560E080918F010E94730420918E01CC
:101D300030918D0180918B0190918C012317A0F03F
:101D400010928E018C509E4F919581959109880F2C
:101D5000991F885390459093890080938800109232
:101D60008C0110928B01C6CFE22FF0E0EE0FFF1F27
:101D7000E958FE4F40815181445F5140440F551F47
:101D8000509389004093880040815181840F951FB2
:101D900090938C0180938B012F5F20938E01AACFAB
:101DA000BF92CF92DF92EF92FF920F931F93CF9348
:101DB000DF93CDB7DEB7C659D1090FB6F894DEBFB1
:101DC0000FBECDBF109232021092310288EE93E026
:101DD000A0E0B0E08093330290933402A0933502E8
:101DE000B09336022AE231E03093300220932F0282
:101DF0002FEF3FEF30933C0220933B021092820280
:101E0000109281028093830290938402A0938502B2
:101E1000B09386028CE391E09093800280937F02DE
:101E20008DEC90E090938C0280938B028CEC90E090
:101E300090938E0280938D0288EC90E090939002B4
:101E400080938F0289EC90E09093920280939102AC
:101E50008AEC90E090939402809393028EEC90E051
:101E60009093960280939502109298021092990294
:101E700010929A0210929B0210923B0310923A0326
:101E800010923E0310924303109242038FEF93E0AF
:101E900090934503809344031092470310924603A6
:101EA000909349038093480310924B0310924A0386
:101EB00090934D0380934C0310924F0310924E0366
:101EC0009093510380935003109253031092520346
:101ED0009093550380935403109257031092560326
:101EE000909359038093580310925B0310925A0306
:101EF00090935D0380935C0310925F0310925E03E6
:101F000090936103809360031092630310926203C5
:101F100090936503809364031092670310926603A5
:101F2000909369038093680310926B0310926A0385
:101F300090936D0380936C0310926F0310926E0365
:101F40009093710380937003109273031092720345
:101F5000909375038093740343E04093760330E2DB
:101F600030933D0322E020933F03FFEFF0934003C3
:101F70004093410365E0698391E09A8389E08B8314
:101F8000A4E0AC83E1EAED839E8355E85F83488754
:101F900069878A8749E14B879C8749E24D873E875D
:101FA00005E10F87188A15E2198B9A8B55E75B8B31
:101FB0009C8B45E94D8B3E8B35E53F8B188EB5E606
:101FC000B98F1A8E31E83B8F2C8F6D8F9E8F8F8F3C
:101FD00079E3B72EB8A209A31AA21BA377E0C72EF4
:101FE000CCA275E37DA31EA20F2EF6E4DF2EF02D0A
:101FF000DFA20F2EFBE3EF2EF02DE8A699A7BAA7DC
:102000000F2EF4E1FF2EF02DFBA65CA7ADA74EA787
:102010009FA738AB29AB8AABBBAA0CAB1DAA1EABE2
:10202000CFAA78AF19AEDAAEEBAE9CAFBDAFFEAEC5
:102030005FAF2196AFAF219722964FAF229723969D
:102040009FAF239724963FAF249725962FAF2597D0
:1020500026968FAF269727969FAF2797A6E1FA2E51
:102060002896FFAE289729969FAF299700E82A96D1
:102070000FAF2A9716E22B961FAF2B972C96FFAF28
:102080002C97BFE72D96BFAF2D972E965FAF2E975B
:10209000A0E12F96AFAF2F9760964FAF60976894EF
:1020A000EE24E3F86196EFAE61976296EFAF629728
:1020B00063961FAE639764968FAF64970F2EF0E31D
:1020C000EF2EF02D6596EFAE659766968FAF66970B
:1020D0000F2EF1E3EF2EF02D6796EFAE679768961F
:1020E0008FAF68970F2EF2E3EF2EF02D6996EFAECB
:1020F00069976A968FAF6A970F2EF3E3EF2EF02D54
:102100006B96EFAE6B976C968FAF6C970F2EF4E3D8
:10211000EF2EF02D6D96EFAE6D976E968FAF6E979A
:102120006F967FAF6F97A0968FAFA09776E3A1963B
:102130007FAFA197A2968FAFA29777E3A3967FAFC9
:10214000A397A4963FAFA497A5962FAFA59770EC41
:10215000A6967FAFA697A7966FAFA797A8962FAF23
:10216000A897A996FFAEA997AA969FAFAA97AB96F4
:102170000FAFAB97AC961FAFAC97AD96FFAFAD97D7
:10218000AE96BFAFAE97AF965FAFAF97E096AFAFEB
:10219000E097E1964FAFE197E2962FAFE297E39693
:1021A000EFAFE397E4961FAEE497E5968FAFE59720
:1021B0009AEBE6969FAFE697E7968FAFE7978BEBA4
:1021C000E8968FAFE897E9963FAFE997EA962FAF89
:1021D000EA97EB967FAFEB97EC967FAFEC978BE7A8
:1021E00090E00E94AC1E7C018BE7FE013196D70186
:1021F00001900D928A95E1F787E090E00E94AC1E75
:102200008C01DC0111961C921E921396FC92EE92A8
:1022100012978BE790E015969C938E9314971696E1
:102220001C920E94C306FC01A385B485109709F097
:102230007BC01487038785859685D80114962D91D8
:102240003C91820F931F9687858790913D03892F3C
:10225000869586958695977009F06EC080933E03AB
:1022600010913E03812F90E00E94AC1E90933B039F
:1022700080933A0381E090913F03911101C080E087
:102280001C5E810F8093770310921D0310921C0334
:1022900010921F0310921E0310922103109220032C
:1022A000109223031092220310922503109224030C
:1022B00010922703109226031092290310922803EC
:1022C00010922B0310922A0310922D0310922C03CC
:1022D00010922F0310922E031092310310923003AC
:1022E000109233031092320310923503109234038C
:1022F0008FEF9FEF909337038093360390933903CA
:102300008093380390E080E020913E03281719065F
:10231000A9F0A4F0E0913A03F0913B03E80FF91F14
:1023200010820196F1CFDC018D919C91119700975D
:10233000D1F70D931C937FCF8F5F90CFCA56DF4F9D
:102340000FB6F894DEBF0FBECDBFDF91CF911F91C6
:102350000F91FF90EF90DF90CF90BF900895CF93B3
:10236000DF93CDB7DEB762970FB6F894DEBF0FBE2E
:10237000CDBF789484B5826084BD84B5816084BD0E
:1023800085B5826085BD85B5816085BD80916E0013
:10239000816080936E001092810080918100826044
:1023A0008093810080918100816080938100809181
:1023B0008000816080938000809191008260809392
:1023C00091008091910081608093910080919000B4
:1023D0008160809390008091C10084608093C100EF
:1023E0008091C10082608093C1008091C1008160B2
:1023F0008093C1008091C30081608093C30080916D
:10240000C00082608093C0008091C2008160809390
:10241000C20080917A00846080937A0080917A0073
:10242000826080937A0080917A00816080937A0044
:1024300080917A00806880937A0010922E02109228
:10244000B0011092AF018091D70081608093D700D6
:1024500080EA8093D80089B5806189BD89B58260A2
:1024600089BD09B400FEFDCF61E070E080E090E03E
:102470000E9419058091D8008F7C80618093D800DC
:102480008091E000807F8093E0008091E1008E7E6B
:102490008093E1008DE08093E200559A209A81E0DC
:1024A00080933C030E949B0821E83FEF3093430355
:1024B000209342038FE790E0909345038093440379
:1024C0003093470320934603909349038093480336
:1024D00030934B0320934A0390934D0380934C0316
:1024E00030934F0320934E039093510380935003F6
:1024F00030935303209352039093550380935403D6
:1025000030935703209356039093590380935803B5
:1025100010925B0310925A032FEF30E030935D036B
:1025200020935C0310925F0310925E03309361036B
:10253000209360031092630310926203309365034B
:10254000209364031092670310926603309369032B
:102550002093680390932F0380932E0380913C0374
:1025600081110E949B088FE790E090933103809344
:10257000300380913C0381110E949B088FE790E01B
:10258000909333038093320380913C0381110E9426
:102590009B088FE790E090933503809334038091FC
:1025A0003C0381110E949B0862E086E00E94A10426
:1025B00062E084E00E94A10462E087E00E94A1043E
:1025C00062E088E00E94A10462E080E10E94A10430
:1025D00062E08EE00E94A10462E085E00E94A10416
:1025E00061E083E00E94A10461E082E00E94A10416
:1025F00082E192E022EF31E03A8329832CED35E04D
:10260000E981FA8121933193FA83E9838E179F0739
:10261000B9F7E0918F02F091900282E08083E0911F
:102620008B02F0918C021082E0918D02F0918E026B
:1026300083E1808310929702E0919302F0919402DB
:102640008EE28083E0919102F0919202808180611C
:102650008083E0919102F091920280818860808372
:10266000E0919102F0919202808180688083E091F4
:102670009102F091920280818F7D808361E082E0FF
:102680000E94730464E670E080E090E00E94190507
:1026900085E00E944A04892B09F07DC264EF71E055
:1026A00080E090E00E94190588EE93E00E943507D3
:1026B00082E10E94D204BC01990F880B990B0E9401
:1026C0005C1D20E030E040E05FE30E94461C20E01B
:1026D00030E040E251E40E94B21C20E030E0A90169
:1026E0000E94E81D87FD03C282E10E94D204BC0162
:1026F000990F880B990B0E945C1D20E030E040E0B0
:102700005FE30E94461C20E030E040E251E40E947A
:10271000B21C20E030E040E05FE30E94461C0E94D3
:10272000241D2AE0269FA001279F500D11245093BD
:102730002C0240932B025093280240932702BA01A7
:1027400082E090E00E94A90A60912702709128021D
:102750008EE090E00E94A90A83E10E94D204BC01AD
:10276000990F880B990B0E945C1D20E030E040E03F
:102770005FE30E94461C20E030E040E251E40E940A
:10278000B21C20E030E0A9010E94E81D87FDCBC10A
:1027900083E10E94D204BC01990F880B990B0E941F
:1027A0005C1D20E030E040E05FE30E94461C20E03A
:1027B00030E040E251E40E94B21C20E030E040E012
:1027C0005FE30E94461C0E94241D2AE0269FA00170
:1027D000279F500D112450932602409325025093B9
:1027E000220240932102BA0186E090E00E94A90AE9
:1027F000609121027091220286E190E00E94A90A74
:1028000085E10E94D204BC01990F880B990B0E94AC
:102810005C1D20E030E040E05FE30E94461C20E0C9
:1028200030E040E251E40E94B21C20E030E0A90117
:102830000E94E81D87FD93C185E10E94D204BC017E
:10284000990F880B990B0E945C1D20E030E040E05E
:102850005FE30E94461C20E030E040E251E40E9429
:10286000B21C20E030E040E05FE30E94461C0E9482
:10287000241D2AE0269FA001279F500D112450936C
:10288000200240931F0250931C0240931B02BA0186
:102890008AE090E00E94A90A60911B0270911C02DC
:1028A0008EE190E00E94A90A84E10E94D2049093F4
:1028B000180280931702BC0186E290E00E94A90AE8
:1028C0008CE10E94D2049093140280931302BC0105
:1028D0008EE290E00E94A90A82E10E94D204209137
:1028E0002702309128028217930784F482E10E9424
:1028F000D2049093280280932702BC018EE090E0DE
:102900000E94A90A84E190E00E94350782E10E94BA
:10291000D2042091290230912A022817390784F421
:1029200082E10E94D20490932A0280932902BC0182
:1029300082E190E00E94A90A84E190E00E943507BC
:1029400083E10E94D2042091210230912202821759
:10295000930784F483E10E94D2049093220280932F
:102960002102BC0186E190E00E94A90A84E190E086
:102970000E94350783E10E94D20420912302309106
:1029800024022817390784F483E10E94D20490932B
:10299000240280932302BC018AE190E00E94A90AEC
:1029A00084E190E00E94350785E10E94D2042091E5
:1029B0001B0230911C028217930784F485E10E9468
:1029C000D20490931C0280931B02BC018EE190E024
:1029D0000E94A90A84E190E00E94350785E10E94E7
:1029E000D20420911D0230911E022817390784F469
:1029F00085E10E94D20490931E0280931D02BC01C7
:102A000082E290E00E94A90A84E190E00E943507EA
:102A100084E10E94D204209117023091180282179B
:102A2000930784F484E10E94D20490931802809367
:102A30001702BC0186E290E00E94A90A84E190E0BE
:102A40000E94350784E10E94D2042091190230913E
:102A50001A022817390784F484E10E94D204909363
:102A60001A0280931902BC018AE290E00E94A90A2E
:102A700084E190E00E9435078CE10E94D20420910D
:102A80001302309114028217930784F48CE10E94A0
:102A9000D2049093140280931302BC018EE290E062
:102AA0000E94A90A84E190E00E9435078CE10E940F
:102AB000D20420911502309116022817390784F4A8
:102AC0008CE10E94D2049093160280931502BC01FF
:102AD00082E390E00E94A90A84E190E00E94350719
:102AE00068EC70E080E090E00E941905F5CE82E18C
:102AF0000E94D204BC01990F880B990B0E945C1DA7
:102B000020E030E040E05FE30E94461C20E030E03F
:102B100040E251E40E94B21C20E030E040E05FE37C
:102B20000E94451CFCCD83E10E94D204BC01990F98
:102B3000880B990B0E945C1D20E030E040E05FE3D1
:102B40000E94461C20E030E040E251E40E94B21CAA
:102B500020E030E040E05FE30E94451C34CE85E198
:102B60000E94D204BC01990F880B990B0E945C1D36
:102B700020E030E040E05FE30E94461C20E030E0CF
:102B800040E251E40E94B21C20E030E040E05FE30C
:102B90000E94451C6CCE82E090E00E94980A9093BF
:102BA0002C0280932B0286E090E00E94980A90937A
:102BB0002602809325028AE090E00E94980A909372
:102BC000200280931F028EE090E00E94980A90936A
:102BD00028028093270282E190E00E94980A909355
:102BE0002A028093290286E190E00E94980A90933D
:102BF0002202809321028AE190E00E94980A909339
:102C00002402809323028EE190E00E94980A909320
:102C10001C0280931B0282E290E00E94980A90932B
:102C20001E0280931D0286E290E00E94980A909313
:102C30001802809317028AE290E00E94980A90930B
:102C40001A02809319028EE290E00E94980A9093F3
:102C500014028093130282E390E00E94980A9093FA
:102C60001602809315028FB7F8942091B10130912C
:102C7000B2014091B3015091B4012B873C874D873D
:102C80005E878FBF82E10E94D204BC01990F880B3E
:102C9000990B0E945C1D20E030E040E05FE30E9461
:102CA000461C20E030E040E251E40E94B21C20E0EB
:102CB00030E0A9010E94E81D87FDE5C182E10E9484
:102CC000D204BC01990F880B990B0E945C1D20E077
:102CD00030E040E05FE30E94461C20E030E040E24C
:102CE00051E40E94B21C20E030E040E05FE30E942B
:102CF000461C0E94241D9B01AC01AAE0B0E00E948A
:102D0000091C20912B0230912C028901330F220BD8
:102D1000330B212C061717072807390751F1C090EC
:102D20002902D0902A020D2C000CEE08FF0880909A
:102D3000270290902802092C000CAA08BB0882E107
:102D40000E94D2049C01990F440B550B2819390994
:102D50004A095B09AEEFB0E00E94091CA701960189
:102D6000281939094A095B090E94EA1B31E8232E18
:102D7000220E83E10E94D204BC01990F880B990BAB
:102D80000E945C1D20E030E040E05FE30E94461CB2
:102D900020E030E040E251E40E94B21C20E030E04C
:102DA000A9010E94E81D87FD8AC183E10E94D20427
:102DB000BC01990F880B990B0E945C1D20E030E04C
:102DC00040E05FE30E94461C20E030E040E251E436
:102DD0000E94B21C20E030E040E05FE30E94461C0D
:102DE0000E94241D9B01AC01AAE0B0E00E94091CD6
:102DF00020912502309126028901330F220B330BDB
:102E0000B12C061717072807390751F1C090230284
:102E1000D09024020D2C000CEE08FF0880902102B7
:102E200090902202092C000CAA08BB0883E10E94A2
:102E3000D2049C01990F440B550B281939094A09F2
:102E40005B09AEEFB0E00E94091CA70196012819AA
:102E500039094A095B090E94EA1B91E8B92EB20EB2
:102E600085E10E94D204BC01990F880B990B0E9446
:102E70005C1D20E030E040E05FE30E94461C20E063
:102E800030E040E251E40E94B21C20E030E0A901B1
:102E90000E94E81D87FD2FC185E10E94D204BC017C
:102EA000990F880B990B0E945C1D20E030E040E0F8
:102EB0005FE30E94461C20E030E040E251E40E94C3
:102EC000B21C20E030E040E05FE30E94461C0E941C
:102ED000241D9B01AC01AAE0B0E00E94091C2091D6
:102EE0001F02309120028901330F220B330B912CEA
:102EF000061717072807390751F1C0901D02D09017
:102F00001E020D2C000CEE08FF0840901B02509092
:102F10001C02052C000C6608770885E10E94D2048B
:102F20009C01990F440B550B241935094609570983
:102F3000AEEFB0E00E94091CA701960124193509E3
:102F4000460957090E94EA1B81E8982E920E40908C
:102F5000190250901A02052C000C66087708C090E0
:102F60001702D09018020D2C000CEE08FF0884E127
:102F70000E94D2049C01990F440B550B2C193D095A
:102F80004E095F09AFEFB0E00E94091CA301920156
:102F90002C193D094E095F090E94EA1BC22EA22E80
:102FA00086E00E944A0461E0892B09F060E0E62E89
:102FB000E19484E00E944A0461E0892B09F060E01A
:102FC000F62EF19487E00E944A04019709F4AFC0FD
:102FD00087E00E944A04712C892B49F488E00E9402
:102FE0004A0461E0019709F060E0762E719480E177
:102FF0000E944A0431E03B83892B09F01B824B81FC
:1030000041954A8B8EE00E944A0451E05B83892BF4
:1030100009F01B828B818195898BE0911502F091DB
:103020001602F88BEF8740901302509014028CE147
:103030000E94D2048C018091120281118CC0F9E0AF
:10304000FA1508F47DC0E1107BC0F11079C0711051
:1030500077C02A89211174C03989311171C041E0CA
:103060004093120288EC90E00E94350780E090E0E7
:10307000892B09F4F8CD0E945D03882309F4F3CD70
:103080000E940000F0CD82E10E94D204BC01990FA1
:10309000880B990B0E945C1D20E030E040E05FE36C
:1030A0000E94461C20E030E040E251E40E94B21C45
:1030B00020E030E040E05FE30E94451C1ACE83E14F
:1030C0000E94D204BC01990F880B990B0E945C1DD1
:1030D00020E030E040E05FE30E94461C20E030E06A
:1030E00040E251E40E94B21C20E030E040E05FE3A7
:1030F0000E94451C75CE85E10E94D204BC01990F47
:10310000880B990B0E945C1D20E030E040E05FE3FB
:103110000E94461C20E030E040E251E40E94B21CD4
:1031200020E030E040E05FE30E94451CD0CE88E024
:103130000E944A04019709F04BCF0FE7702E57CF3A
:1031400082E390E00E9435076CE271E080E090E05D
:103150000E9419058BCF022C000C330830921D03FE
:1031600020921C0380913C0381110E949B088B2DAF
:10317000BB0C990B9C838B8390931F0380931E033E
:1031800080913C0381110E949B08EC2DF0E0FE83AE
:10319000ED83CF018F5791099093210380932003F2
:1031A00080913C0381110E949B08292D990C330BBF
:1031B00038872F83309323032093220380913C038D
:1031C00081110E949B086E2D70E090E080E00E94CB
:1031D0005C1D4B015C0126EA3BE944EB5FE30E9486
:1031E000ED1D0E94241D709325036093240380919C
:1031F0003C0381110E949B086F2D70E090E080E0FD
:103200000E945C1D6B017C0126EA3BE944EB5FE315
:103210000E94ED1D0E94241D7093270360932603D6
:1032200080913C0381110E949B08472D50E05A87F2
:103230004987509329034093280380913C038111CF
:103240000E949B08052C000C660877086A8980E0BC
:103250000E94630A698981E00E94630A012E000CC2
:10326000220B330BA9019801241935094609570986
:10327000AFEFB0E00E94091CEF85F8899F01FF0FB6
:10328000440B550B24193509460957090E94EA1BBE
:10329000022F10E010932B0300932A0380913C032C
:1032A00081110E949B080E949B08B10161587F4FC9
:1032B000072E000C880B990B0E945C1D2FEC37EF3A
:1032C0004BE750E40E94ED1D20E030EC4AE754E467
:1032D0000E94461C0E94241D7093F3016093F2012A
:1032E0006B817C8161587F4F072E000C880B990BF6
:1032F0000E945C1D2FEC37EF4BE750E40E94ED1D60
:1033000020E030EC4AE754E40E94461C0E94241D51
:103310007093F5016093F4012D813E81B901330F63
:10332000880B990B0E945C1D2CE032E04BE750E4C7
:103330000E94ED1D20E030EC4AE754E40E94461C58
:103340000E94241D7093F7016093F6016F817885C8
:1033500061587F4F072E000C880B990B0E945C1D53
:103360002FEC37EF4BE750E40E94ED1D20E030ECEE
:103370004AE754E40E94461C0E94241D7093F90100
:103380006093F8012CE032E04BE750E4C501B40152
:103390000E94ED1D20E030EC4AE754E40E94461CF8
:1033A0000E94241D7093FB016093FA012CE032E02F
:1033B0004BE750E4C701B6010E94ED1D20E030EC60
:1033C0004AE754E40E94461C0E94241D7093FD01AC
:1033D0006093FC0149855A85BA01550F880B990BFA
:1033E0000E945C1D2CE032E04BE750E40E94ED1D92
:1033F00020E030EC4AE754E40E94461C0E94241D61
:103400007093FF016093FE015A89652F70E090E090
:1034100080E00E945C1D2CE032E04BE750E40E940B
:10342000ED1D20E030EC4AE754E40E94461C0E9467
:10343000241D7093010260930002E9896E2F70E0F1
:1034400090E080E00E945C1D2CE032E04BE750E40D
:103450000E94ED1D20E030EC4AE754E40E94461C37
:103460000E94241D7093030260930202B801110FA1
:10347000880B990B0E945C1D2CE032E04BE750E476
:103480000E94ED1D20E030EC4AE754E40E94461C07
:103490000E94241D70930502609304022BEE33E01A
:1034A000309307022093060230930902209308020A
:1034B00047E853E050930B0240930A0250930D02E9
:1034C00040930C0250930F0240930E028091EE0144
:1034D0009091EF01A091F001B091F1012B853C8515
:1034E0004D855E8582179307A407B50708F0BECD0A
:1034F00005EB11E042EF51E05C834B83EB81FC81F3
:1035000021913191FC83EB83032E000C440B550B6E
:103510002E5D334041095109A6E6B6E00E94091C20
:103520002CEF33E040E050E00E94EA1B23553F4F70
:103530004F4F5F4FF801219331938F0129813A81D9
:103540004B815C8124173507C9F65FE05093D501A4
:103550009091B5014091B6019093D6012091B701A9
:103560003091B8014770C90153E0880F991F5A95EF
:10357000E1F7842B8093D7018091B9019091BA0132
:1035800065E0359527956A95E1F72F73AC0176E0F4
:10359000440F551F7A95E1F7422B4093D8019C01C7
:1035A00035952795359527952093D9012091BB0115
:1035B0003091BC0192FB442740F9C901880F991F43
:1035C000842B8093DA018091BD019091BE01220F7E
:1035D000232F221F330B2F70AC01B4E0440F551F73
:1035E000BA95E1F7422B4093DB012091BF01309166
:1035F000C00114E0959587951A95E1F720FB87F9AE
:103600008093DC01C901959587958093DD018091B8
:10361000C1019091C201432F459543709C01220F37
:10362000331F220F331F242B2093DE012091C3016F
:103630003091C40166E0959587956A95E1F78F71A1
:10364000A90175E0440F551F7A95E1F7482B409387
:10365000DF01E3E035952795EA95E1F72093E00156
:103660009091C5014091C6019093E1012091C7015D
:103670003091C8014770C901F3E0880F991FFA958E
:10368000E1F7842B8093E2018091C9019091CA01F6
:10369000A5E035952795AA95E1F72F73AC01B6E023
:1036A000440F551FBA95E1F7422B4093E3019C016B
:1036B00035952795359527952093E4012091CB01E9
:1036C0003091CC0192FB442740F9C901880F991F22
:1036D000842B8093E5018091CD019091CE01220F42
:1036E000232F221F330B2F70AC0164E0440F551FB2
:1036F0006A95E1F7422B4093E6012091CF0130918A
:10370000D00174E0959587957A95E1F720FB87F9CC
:103710008093E701C901959587958093E801809191
:10372000D1019091D201432F459543709C01220F06
:10373000331F220F331F242B2093E9012091D30143
:103740003091D401A6E095958795AA95E1F78F7100
:10375000A901B5E0440F551FBA95E1F7482B4093F6
:10376000EA0113E0359527951A95E1F72093EB01CF
:103770001092EC011092ED0149E150E065ED71E02D
:103780008FE792E00E94AE028B859C85AD85BE8559
:103790000F96A11DB11D8093EE019093EF01A093B0
:1037A000F001B093F10162CCF999FECF92BD81BDD9
:1037B000F89A992780B50895262FF999FECF1FBA58
:1037C00092BD81BD20BD0FB6F894FA9AF99A0FBE4A
:1037D00001960895052E97FB1EF400940E94011C8B
:1037E00057FD07D00E94141C07FC03D04EF40C9424
:1037F000011C50954095309521953F4F4F4F5F4F9D
:10380000089590958095709561957F4F8F4F9F4F4C
:1038100008950E94361CA59F900DB49F900DA49F03
:10382000800D911D11240895A1E21A2EAA1BBB1B25
:10383000FD010DC0AA1FBB1FEE1FFF1FA217B3077C
:10384000E407F50720F0A21BB30BE40BF50B661F92
:10385000771F881F991F1A9469F760957095809556
:1038600090959B01AC01BD01CF010895A29FB001CD
:10387000B39FC001A39F700D811D1124911DB29FA4
:10388000700D811D1124911D08955058BB27AA2742
:103890000E945D1C0C94AE1D0E94A01D38F00E9479
:1038A000A71D20F039F49F3F19F426F40C949D1DB8
:1038B0000EF4E095E7FB0C94971DE92F0E94BF1DC5
:1038C00058F3BA17620773078407950720F079F455
:1038D000A6F50C94E11D0EF4E0950B2EBA2FA02D49
:1038E0000B01B90190010C01CA01A0011124FF27AD
:1038F000591B99F0593F50F4503E68F11A16F040A8
:10390000A22F232F342F4427585FF3CF46953795A6
:103910002795A795F0405395C9F77EF41F16BA0B6B
:10392000620B730B840BBAF09150A1F0FF0FBB1F19
:10393000661F771F881FC2F70EC0BA0F621F731F62
:10394000841F48F4879577956795B795F7959E3FBF
:1039500008F0B0CF9395880F08F09927EE0F979550
:10396000879508950E94C61C0C94AE1D0E94A71D49
:1039700058F00E94A01D40F029F45F3F29F00C94FC
:10398000971D51110C94E21D0C949D1D0E94BF1DAA
:1039900068F39923B1F3552391F3951B550BBB277E
:1039A000AA2762177307840738F09F5F5F4F220FC3
:1039B000331F441FAA1FA9F335D00E2E3AF0E0E8BA
:1039C00032D091505040E695001CCAF72BD0FE2F04
:1039D00029D0660F771F881FBB1F26173707480798
:1039E000AB07B0E809F0BB0B802DBF01FF27935850
:1039F0005F4F3AF09E3F510578F00C94971D0C9460
:103A0000E21D5F3FE4F3983ED4F386957795679582
:103A1000B795F7959F5FC9F7880F911D9695879584
:103A200097F90895E1E0660F771F881FBB1F6217A3
:103A300073078407BA0720F0621B730B840BBA0B61
:103A4000EE1F88F7E09508950E942B1D6894B11130
:103A50000C94E21D08950E94C71D88F09F5798F0AE
:103A6000B92F9927B751B0F0E1F0660F771F881F83
:103A7000991F1AF0BA95C9F714C0B13091F00E949D
:103A8000E11DB1E008950C94E11D672F782F882780
:103A9000B85F39F0B93FCCF3869577956795B395C4
:103AA000D9F73EF490958095709561957F4F8F4F33
:103AB0009F4F0895E89409C097FB3EF49095809538
:103AC000709561957F4F8F4F9F4F9923A9F0F92FE4
:103AD00096E9BB279395F695879577956795B79562
:103AE000F111F8CFFAF4BB0F11F460FF1BC06F5F48
:103AF0007F4F8F4F9F4F16C0882311F096E911C05A
:103B0000772321F09EE8872F762F05C0662371F07A
:103B100096E8862F70E060E02AF09A95660F771F8E
:103B2000881FDAF7880F9695879597F9089597F982
:103B30009F6780E870E060E008959FEF80EC089553
:103B400000240A941616170618060906089500247C
:103B50000A9412161306140605060895092E0394F6
:103B6000000C11F4882352F0BB0F40F4BF2B11F46A
:103B700060FF04C06F5F7F4F8F4F9F4F089557FDC9
:103B80009058440F551F59F05F3F71F04795880FCB
:103B900097FB991F61F09F3F79F087950895121662
:103BA00013061406551FF2CF4695F1DF08C016160E
:103BB00017061806991FF1CF8695710561050894BF
:103BC0000895E894BB2766277727CB0197F90895D6
:103BD0000E945A1E08F48FEF08950E94001E0C9454
:103BE000AE1D0E94A01D38F00E94A71D20F0952355
:103BF00011F00C94971D0C949D1D11240C94E21D42
:103C00000E94BF1D70F3959FC1F3950F50E0551FA3
:103C1000629FF001729FBB27F00DB11D639FAA2721
:103C2000F00DB11DAA1F649F6627B00DA11D661F70
:103C3000829F2227B00DA11D621F739FB00DA11D91
:103C4000621F839FA00D611D221F749F3327A00D4B
:103C5000611D231F849F600D211D822F762F6A2FE7
:103C600011249F5750409AF0F1F088234AF0EE0F4C
:103C7000FF1FBB1F661F771F881F91505040A9F779
:103C80009E3F510580F00C94971D0C94E21D5F3F00
:103C9000E4F3983ED4F3869577956795B795F795B5
:103CA000E7959F5FC1F7FE2B880F911D969587952D
:103CB00097F90895990F0008550FAA0BE0E8FEEF59
:103CC00016161706E807F907C0F012161306E407E0
:103CD000F50798F0621B730B840B950B39F40A26D9
:103CE00061F0232B242B252B21F408950A2609F4B7
:103CF000A140A6958FEF811D811D089597FB072E8A
:103D000016F4009407D077FD09D00E94981E07FC96
:103D100005D03EF4909581959F4F089570956195DB
:103D20007F4F0895EE0FFF1F0590F491E02D099449
:103D3000AA1BBB1B51E107C0AA1FBB1FA617B707D1
:103D400010F0A61BB70B881F991F5A95A9F78095ED
:103D50009095BC01CD0108950F931F93CF93DF93EE
:103D60008230910510F482E090E0E0917A03F091C6
:103D70007B0330E020E0B0E0A0E0309799F421151B
:103D8000310509F44AC0281B390B24303105D8F518
:103D90008A819B816115710589F1FB01938382837F
:103DA000FE0111C0408151810281138148175907DA
:103DB000E0F04817590799F4109761F012960C93A8
:103DC000129713961C933296CF01DF91CF911F91DA
:103DD0000F91089500937A0310937B03F4CF21157C
:103DE000310551F04217530738F0A901DB019A0160
:103DF000BD01DF01F801C1CFEF01F9CF90937B0343
:103E000080937A03CDCFFE01E20FF31F819391934C
:103E10002250310939832883D7CF209178033091FC
:103E20007903232B41F4209116013091170130932F
:103E30007903209378032091140130911501211505
:103E4000310541F42DB73EB7409118015091190149
:103E5000241B350BE0917803F0917903E217F30707
:103E6000A0F42E1B3F0B2817390778F0AC014E5FEA
:103E70005F4F2417350748F04E0F5F1F50937903AB
:103E800040937803819391939FCFF0E0E0E09CCF43
:103E9000CF93DF930097E9F0FC01329713821282EF
:103EA000A0917A03B0917B03ED0130E020E0109700
:103EB000A1F420813181820F931F209178033091EA
:103EC00079032817390709F061C0F0937903E0936B
:103ED0007803DF91CF910895EA01CE17DF07E8F567
:103EE0004A815B819E0141155105B1F7E901FB83D0
:103EF000EA8349915991C40FD51FEC17FD0761F46E
:103F0000808191810296840F951FE90199838883AE
:103F1000828193819B838A83F0E0E0E012968D9109
:103F20009C9113970097B9F52D913C911197CD0174
:103F30000296820F931F20917803309179032817FE
:103F4000390739F6309751F510927B0310927A03B6
:103F5000B0937903A0937803BCCFD383C28340810D
:103F60005181840F951FC817D90761F44E5F5F4FC9
:103F700088819981480F591F518340838A819B8191
:103F8000938382832115310509F0B0CFF0937B0331
:103F9000E0937A039ECFFD01DC01C0CF1382128231
:103FA000D7CFFB01DC0102C001900D92415050407F
:083FB000D8F70895F894FFCF43
:103FB800FF00C18081000000FFFFFFFF00E100005B
:103FC8000000000000007C03800000000000FC05E9
:103FD80078063A061F06000000008701E6059C02E5
:103FE8009D01EA01A801C601000000009203AE028B
:0A3FF8002003DE0351032F034303EF
:00000001FF
