:100000000C94D9000C9401010C9401010C94010191
:100010000C9401010C9401010C9401010C94010158
:100020000C9401010C9401010C94840A0C94F30AC1
:100030000C9401010C9401010C9401010C94010138
:100040000C9401010C94220E0C9401010C940101FA
:100050000C9401010C9401010C9401010C94D80D35
:100060000C9401010C94A60D0C94800D0C940101CC
:100070000C9401010C9401010C9401010C940101F8
:100080000C94250D0C9401010C9401010C940101B8
:100090000C9401010C9401010C9401010C940101D8
:1000A0000C9401010C9401010C9401010307060555
:1000B000040100080A0B0C0D0900000000240027B1
:1000C000002A002D00300000000000250028002B31
:1000D000002E003100000000002300260029002C23
:1000E000002F0004040404040304050202020204B5
:1000F00003020202020606060606060404020202C3
:100100000404040802011040804010204080408018
:10011000080204018040201002011080102040409D
:10012000200000000200090F0000030401000C0081
:1001300000000000000000000000000000000000BF
:10014000080B000202020000090400000102020084
:100150000005240010010524010101042402060504
:100160002406000107058103100040090401000274
:100170000A00000007050202400000070583024054
:1001800000000403090412010002EF0201404123B0
:10019000368000010102030141726475696E6F20AF
:1001A0004C4C4300415244552052656D6F746500BC
:1001B0009C0E11241FBECFEFDAE0DEBFCDBF11E0F1
:1001C000A0E0B1E0E4E5FBE302C005900D92AA34A3
:1001D000B107D9F723E0AAE4B1E001C01D92AA3229
:1001E000B207E1F710E0C9EDD0E004C02197FE01AD
:1001F0000E94741CC83DD107C9F70E947B110C9462
:10020000A81D0C940000CF92DF92EF92FF920F9303
:100210001F93CF93DF93D901E8016A01F9014217D7
:10022000530714F06901FA01882309F440C0CB0197
:100230006C157D050CF4C6019F018E179F070CF409
:100240009C01A417B50734F4CF01821B930B9C01CA
:100250002C0D3D1D0D2C000CEE08FF08032E000C8C
:10026000440B550B2C193D094E095F09AEEFBFEF4A
:100270000E94D7199F01FF0F440B550B2C193D0904
:100280004E095F090E94B819DA01C9018F5F9F47C3
:10029000A109B1098883998382E090E0DF91CF9131
:1002A0001F910F91FF90EF90DF90CF90089590E015
:1002B00080E0F4CFFC018091DC01882311F13FB78D
:1002C000F89482E08093E9002091F200822F90E080
:1002D0001816190614F481E090E0882339F0289864
:1002E00044E64093DB014091F1004083222339F042
:1002F0002091F200211103C02BE62093E8003FBFBC
:1003000008958FEF9FEF0895CF93DF931F92CDB79E
:10031000DEB76983DC01ED91FC910280F381E02D71
:1003200041E050E0BE016F5F7F4F09950F90DF9174
:10033000CF91089583E08093E9008091F2008823B3
:1003400019F08AE38093E8000895CF93DF931F921A
:10035000CDB7DEB7FC018485958597FD08C02FEFEA
:100360003FEF358724870F90DF91CF910895CE011D
:1003700001960E945A01019719F4898190E0F3CF08
:100380008FEF9FEFF0CF0F931F93CF93DF931F92C9
:10039000CDB7DEB78C01FC018485958597FF0BC036
:1003A000CE0101960E945A01019771F4898190E073
:1003B000F80195878487F801848595850F90DF91F2
:1003C000CF911F910F9108958FEF9FEFF1CFFC0117
:1003D0008485958597FD0BC09FB7F89482E0809344
:1003E000E9008091F2009FBF90E0019608959FB7C9
:1003F000F89482E08093E9008091F2009FBF90E042
:1004000008954091AB015091AC012091A901309128
:10041000AA0142175307B4F49091E8009570E1F3F4
:100420009091E80092FD19C08093F1008091AB019A
:100430009091AC0101968F739927892B19F48EEF57
:100440008093E8008091AB019091AC01019690936C
:10045000AC018093AB0181E0089580E00895EF92B4
:10046000FF920F931F93CF93DF93F82E192FE62E51
:10047000042F81E0860F880F0E94010283E00E9412
:100480000102CF2DD12FEC0EFD2EF11CCE15DF0574
:10049000B9F007FF13C0FE0184910E940102182FDA
:1004A00080E00E940102812321968111EFCFDF912C
:1004B000CF911F910F91FF90EF9008958881EDCF1C
:1004C00081E0F5CFDF92EF92FF920F931F93CF93CE
:1004D000DF93D82E8A01EB017B01E40EF51ECE15C9
:1004E000DF0559F0D7FE12C0FE0184910E9401027F
:1004F00021968111F4CF0FEF1FEFC801DF91CF914B
:100500001F910F91FF90EF90DF9008958881EECFBB
:100510002FB7F89487708093E9009091E800892FB5
:10052000807295FF04C09091F20080E4891B2FBF78
:10053000089583E00E94880290E00895615030F0B1
:100540002091F100FC0120830196F8CF289884E6E1
:100550008093DB010895AF92BF92CF92DF92EF922A
:10056000FF920F931F93CF93DF936C017B018B015D
:10057000040F151FEB015E01AE18BF08C017D107AD
:1005800059F06991D601ED91FC910190F081E02D37
:10059000C6010995892B79F7C501DF91CF911F918C
:1005A0000F91FF90EF90DF90CF90BF90AF900895A4
:1005B00080919A0181110DC082E08093960184E0C0
:1005C00080939701109299011092980181E0809395
:1005D0009A0186E991E008950F931F93CF93DF93DB
:1005E0001F92CDB7DEB782E0898342E450E060E439
:1005F00071E080E80E9462020E94D802DC0112963B
:100600000D911C910115110589F0D801ED91FC9116
:100610000280F381E02DBE016F5F7F4FC801099515
:1006200097FD04C0F80100851185ECCF89810F90FA
:10063000DF91CF911F910F910895FC01538D448D4F
:10064000252F30E0842F90E0821B930B541710F07D
:10065000CF96089501970895FC01918D828D98178A
:1006600061F0A28DAE0FBF2FB11D5D968C91928D62
:100670009F5F9F73928F90E008958FEF9FEF089593
:10068000FC01918D828D981731F0828DE80FF11D5C
:10069000858D90E008958FEF9FEF0895FC01918D77
:1006A000228D892F90E0805C9F4F821B91098F7370
:1006B000992708958DE292E00E944E0321E0892B54
:1006C00009F420E0822F089580E090E0892B29F042
:1006D0000E945A0381110C9400000895FC01A48D1E
:1006E000A80FB92FB11DA35ABF4F2C91848D90E054
:1006F00001968F739927848FA689B7892C93A08937
:10070000B1898C9182748C93938D848D981306C0DB
:100710000288F389E02D80818F7D80830895EF9298
:10072000FF920F931F93CF93DF93EC0181E0888FAB
:100730009B8D8C8D981319C0E889F989808185FF7C
:1007400014C09FB7F894EE89FF896083E889F9891E
:100750008081827480839FBF81E090E0DF91CF91A0
:100760001F910F91FF90EF900895F62E0B8D10E0E2
:100770000F5F1F4F0F731127E02E8C8D8E110CC051
:100780000FB607FCFACFE889F989808185FFF5CF9C
:10079000CE010E946E03F1CFEB8DEC0FFD2FF11D0A
:1007A000E35AFF4FF0829FB7F8940B8FEA89FB89D9
:1007B00080818062CFCFCF93DF93EC01888D882337
:1007C000B9F0AA89BB89E889F9898C9185FD03C0B4
:1007D000808186FD0DC00FB607FCF7CF8C9185FF99
:1007E000F2CF808185FFEDCFCE010E946E03E9CF6D
:1007F000DF91CF91089581508F3008F047C0E82FE6
:10080000F0E0EB5FFB4F0C94741C220426041404EC
:100810001A041E0446044604460429042F04330423
:1008200037043D0446044104809180008F77809313
:1008300080000895809180008F7DF9CF80918000A5
:10084000877FF5CF84B58F7784BD089584B58F7D7C
:10085000FBCF809190008F778093900008958091D6
:1008600090008F7DF9CF80919000877FF5CF8091A8
:10087000C0008F778093C00008958091C0008F7D65
:10088000F9CF8091C200877F8093C2000895CF93F3
:10089000DF93282F30E0F901EF5DFE4F8491F901DD
:1008A000EE5FFE4FD491F901ED51FF4FC491CC237F
:1008B000A1F081110E94FB03EC2FF0E0EE0FFF1F6F
:1008C000EB52FF4FA591B491EC91ED2381E090E0C4
:1008D00009F480E0DF91CF91089580E090E0FACFB5
:1008E0001F93CF93DF93282F30E0F901EF5DFE4F88
:1008F0008491F901EE5FFE4FD491F901ED51FF4F64
:10090000C491CC23A9F0162F81110E94FB03EC2F78
:10091000F0E0EE0FFF1FE953FF4FA591B4918FB7A1
:10092000F894EC91111108C0D095DE23DC938FBFB1
:10093000DF91CF911F910895DE2BF8CFCF93DF93F6
:1009400090E0FC01EE5FFE4F24918D519F4FFC0122
:1009500084918823D1F090E0880F991FFC01E7541F
:10096000FF4FA591B491FC01E953FF4FC591D4917C
:10097000623071F49FB7F8943C91822F8095832365
:100980008C93E8812E2B28839FBFDF91CF91089510
:100990008FB7F894EC912E2B2C938FBFF6CF82510A
:1009A000E82FF0E0E355FF4FE49190917B008E2F0C
:1009B000880F880F80729F7D892B80937B00E77062
:1009C000E064E0937C0080917A00806480937A00F8
:1009D00080917A0086FDFCCF80917800909179001B
:1009E00008953FB7F8948091920190919301A0915E
:1009F0009401B091950126B5A89B05C02F3F19F031
:100A00000196A11DB11D3FBFBA2FA92F982F88278E
:100A1000BC01CD01620F711D811D911D42E0660F69
:100A2000771F881F991F4A95D1F708958F929F923B
:100A3000AF92BF92CF92DF92EF92FF926B017C0157
:100A40000E94F1044B015C01C114D104E104F104E2
:100A5000B9F00E94F104681979098A099B09683E76
:100A600073408105910580F321E0C21AD108E108A5
:100A7000F10888EE880E83E0981EA11CB11CE4CF1B
:100A8000FF90EF90DF90CF90BF90AF909F908F90AE
:100A900008957F928F929F92AF92BF92CF92DF92F2
:100AA000EF92FF920F931F93CF93DF93C82E8B018A
:100AB0007A018091DC01811110C08FEF9FEFDF91EF
:100AC000CF911F910F91FF90EF90DF90CF90BF904B
:100AD000AF909F908F907F9008958091AF0180FF9D
:100AE00005C08091E00082608093E000CE2DDF2D74
:100AF000D12C8AEFB82E8C2D8770982E8C2D807279
:100B0000882E8C2D8074782E9AE3A92E209719F4C4
:100B1000DD2009F452C08C2D0E94880281110AC088
:100B2000BA94BB2051F261E070E080E090E00E9456
:100B30001605ECCF8C171D0611F00CF08C2F9FB70B
:100B4000F8949092E9002091E80025FD02C09FBF33
:100B5000DDCF282F30E0C21BD30B882029F0815035
:100B6000A0F01092F100FBCFF801C7FC0AC0815041
:100B700050F041914093F100FACF44914093F1003D
:100B800031968150D0F7020F131FDD2021F0A09283
:100B9000E800D12CDCCF8091E80085FD07C0A09251
:100BA000E800DD24D394209791F2F3CF209779F6D3
:100BB000772069F2A092E800CACF5D9884E680931E
:100BC000AE01C7017CCFCF93DF93EC01809113017D
:100BD000882331F083E00E9449051816190634F085
:100BE00081E090E09B838A8380E090E0DF91CF9169
:100BF0000895DC01FB0112962C9112978481958156
:100C00002817190641F491818081813A31F49D7F42
:100C100081E0913009F080E008958132E1F79B3066
:100C200029F482811F968C9381E008959A3099F778
:100C3000828150968C93F8CFDC01FB0188E480839D
:100C400089E4818384E482831D969C911D979F7023
:100C50009F5B93831D968D919C9124E0969587953B
:100C60002A95E1F78F708F5B848385E00895EF927A
:100C7000FF920F931F93CF93DF93FB0120812138C5
:100C800089F52381223271F5DC0112964C91248181
:100C900035814217130631F58C01FC01C385D485DB
:100CA000F12CE12C209791F04C815D816A817B8150
:100CB0008E81811180E80E9462028F3F980759F06F
:100CC000E80EF91E0990D881C02DECCF81E0D80143
:100CD0001F968C93C701DF91CF911F910F91FF90C9
:100CE000EF90089590E080E0F6CFCF93DF93CDB7FB
:100CF000DEB769970FB6F894DEBF0FBECDBFFC011B
:100D0000DB018C918F5F8C939E012D5F3F4F8DE0B7
:100D1000D9011D928A95E9F729E0298384E08A8325
:100D200091E09D8383E08E832A8721E22B879C8735
:100D30009D879F8722E2288B27E02B8B25E02C8B39
:100D40008E8B20E430E0388F2F8B998F82818B83BC
:100D500095858685998B8A8B838180688D8B49E107
:100D600050E0BE016F5F7F4F80E00E946202699693
:100D70000FB6F894DEBF0FBECDBFDF91CF910895BF
:100D8000CF93DF9380916F01811167C081E08093E1
:100D900062018093630128E631E03093650120937E
:100DA000640110926701109266012EE131E03093E8
:100DB0005F0120935E0110926A0110926901109206
:100DC0006C0110926B0180936D0180936E0181EC38
:100DD000809368010E94D802FC0181819091620198
:100DE000482F490F5527551F483051059CF5A281C2
:100DF000B381109709F52EE531E0338322832081FA
:100E0000209360018093610180916301820F808350
:100E100020916401A22FB09165018A2F821B89174E
:100E2000C8F481813D91C82FD0E0CF5FDE4F388379
:100E30008F5F8183F2CFD90118962D913C9119973C
:100E400021153105C1F72EE531E019963C932E931B
:100E50001897D5CF81E080936F018EE591E0DF9107
:100E6000CF9108950F931F93CF938C0160E082E0A0
:100E70000E94700480910001833061F18F3F09F47A
:100E800057C0C8016AE070E00E944C1C90E080E00E
:100E90000E94160580910001833089F4ECEAF0E0AD
:100EA000E4918FEF80930001E13009F433C108F43D
:100EB0002EC1E33009F434C1E43009F437C160E0F5
:100EC00083E00E94700461E082E0CF911F910F9156
:100ED0000C947004ECEAF0E0C491C7FDD2CF61E05D
:100EE00083E00E949E04CC2309F4B2C0C23049F2D0
:100EF000C13009F0C4C080918100887F81608093F7
:100F000081008FE39FE190938900809388008FEFA9
:100F10009FEFDC018093560190935701A0935801F5
:100F2000B093590180916F00826080936F00A9CFC8
:100F300083E080930001ECEAF0E0C491CF3F09F434
:100F4000A0CFC13039F168F0C33009F441C0C430DA
:100F500009F460C0C7FD95CF61E083E00E949E0464
:100F6000C5CF14BC15BC84B5826084BD85B58160D5
:100F700085BDE6EEF0E0E491F0E0EE0FFF1FE953EF
:100F8000FF4F85919491E5E0F1E0E491E093510108
:100F9000C0E0A5CF10928000109281008091810066
:100FA00088608093810080918100816080938100BE
:100FB000E6EEF0E0E491F0E0EE0FFF1FE953FF4FA3
:100FC00085919491E5E0F1E0E491E093500187CFC1
:100FD000109290001092910080919100886080930F
:100FE000910080919100816080939100E6EEF0E0A5
:100FF000E491F0E0EE0FFF1FE953FF4F85919491CC
:101000009093A3018093A201E5E0F1E0E491E093E5
:10101000A40165CF1092C0001092C1008091C10060
:1010200088608093C1008091C10081608093C1007D
:10103000E6EEF0E0E491F0E0EE0FFF1FE953FF4F22
:1010400085919491E5E0F1E0E491E0934F0147CF81
:1010500085B5887F836085BD8CE787BD8FEF9FEF67
:10106000DC0180935A0190935B01A0935C01B093E3
:101070005D0180916E00826080936E0002CFC3306C
:10108000E9F480919100887F8160809391008FE3E3
:101090009FE190939900809398008FEF9FEFDC0180
:1010A0008093A5019093A601A093A701B093A801F6
:1010B00080917100826080937100E3CEC430D1F4DE
:1010C0008091C100887F81608093C1008FE380930D
:1010D000CF008FEF9FEFDC0180935201909353017B
:1010E000A0935401B0935501809172008064809365
:1010F0007200C7CEC13009F404CF24F4C111C1CEAF
:101100008FE3ABCFC33019F2C43001F3BACE1092E3
:101110006E00D5CE80916F008D7F80936F00CFCE13
:10112000809171008D7F80937100C9CE8091720093
:101130008F7B80937200C3CE8F929F92AF92BF92AB
:10114000CF92DF92EF92FF920F931F93CF93DF9393
:10115000CDB7DEB7ADB6BEB6809125032DB73EB78D
:10116000281B31090FB6F8943EBF0FBE2DBF8DB7B7
:101170009EB701966C01E090EC02F12C8091E802A0
:101180009091E902D601FC019F01281B390B2E1515
:101190003F051CF421912D93F7CF8091ED02882318
:1011A00059F18091E4029091E50228E097FD09C091
:1011B00068E671E00E94601C6DE270E00E94601CB5
:1011C000262F8091E6029091E70268E097FD08C023
:1011D00068E671E00E94601C6DE270E00E94601C95
:1011E000F601EE0DFF1D90E1699FB0011124262B41
:1011F0002083F70131967F0186010E0D1F1D20917E
:10120000F2023091F3024091F0025091F1026091AC
:10121000CA027091CB028091EE0281700E9403019C
:10122000E80EF91E86010E0D1F1D2091F602309169
:10123000F7024091F4025091F5026091CC02709156
:10124000CD028091EE02869581700E940301E80E26
:10125000F91E86010E0D1F1D2091FA023091FB022E
:101260004091F8025091F9026091CE027091CF0244
:101270008091EE0282FB882780F90E940301E80E2C
:10128000F91E86010E0D1F1D2091FE023091FF02F6
:101290004091FC025091FD026091D0027091D10208
:1012A0008091EE0283FB882780F90E940301E80EFB
:1012B000F91E86010E0D1F1D2091020330910303BC
:1012C00040910003509101036091D2027091D302CA
:1012D0008091EE02829581700E940301E80EF91E52
:1012E00086010E0D1F1D20910603309107034091CA
:1012F0000403509105036091D4027091D50280914E
:10130000EE0285FB882780F90E940301E80EF91E92
:1013100086010E0D1F1D20910A0330910B03409191
:101320000803509109036091D6027091D702809111
:10133000EE0286FB882780F90E940301E80EF91E61
:1013400086010E0D1F1D20910E0330910F03409159
:101350000C0350910D036091D8027091D9028091D5
:10136000EE02881F8827881F0E940301E80EF91EDD
:1013700086010E0D1F1D2091120330911303409121
:101380001003509111036091DC027091DD02809195
:10139000EF0281700E940301E80EF91E86010E0D16
:1013A0001F1D209116033091170340911403509193
:1013B00015036091DA027091DB028091EF0286954D
:1013C00081700E940301E80EF91E86010E0D1F1D9B
:1013D00020911A0330911B03409118035091190377
:1013E0006091DE027091DF028091EF0282FB88271C
:1013F00080F90E940301E80EF91E86010E0D1F1DE3
:1014000020911E0330911F0340911C0350911D0336
:101410006091E0027091E1028091EF0283FB8827E6
:1014200080F90E9403018E0D9F1D8601080F191F70
:1014300020912203309123034091200350912103F6
:101440006091E2027091E3028091EF0282958170D7
:101450000E9403010E94C0064C0140912503809127
:10146000240350E07A01FFEFEF1AFF0A2DB73EB7D1
:101470002E193F090FB6F8943EBF0FBE2DBF0DB712
:101480001EB70F5F1F4FEDB7FEB78183B601C801CE
:1014900001960E949F1DF4018381A701B801806419
:1014A0000E9449050FB6F894BEBE0FBEADBEDF91D7
:1014B000CF911F910F91FF90EF90DF90CF90BF9051
:1014C000AF909F908F9008951F93CF93DF93EC017F
:1014D0000E94A219182FCE0101960E94A219982FDE
:1014E000812FDF91CF911F9108951F93CF93DF93A9
:1014F000EC01172F0E94AA19612FCE010196DF91EE
:10150000CF911F910C94AA191F920F920FB60F92B0
:1015100011248F939F938091E1009091E100937F3C
:101520009093E10083FF0FC01092E90091E0909347
:10153000EB001092EC0092E39093ED001092DC012E
:1015400098E09093F00082FF22C093E09093E9002E
:101550009091F200992319F09AE39093E80090910A
:10156000AE01992341F09091AE0191509093AE015C
:10157000911101C05D9A9091DB01992341F0909106
:10158000DB0191509093DB01911101C0289A84FFF7
:1015900018C08091E2008E7E81608093E20080918D
:1015A000E1008F7E8093E1008091AF018E7E8061AB
:1015B0008093AF019F918F910F900FBE0F901F905E
:1015C000189580FFF7CF8091E2008E7E8061809336
:1015D000E2008091E1008E7E8093E1008091AF0176
:1015E0008E7E8160E5CF1F920F920FB60F9211246D
:1015F000CF92DF92EF92FF920F931F932F933F931F
:101600004F935F936F937F938F939F93AF93BF930A
:10161000EF93FF93CF93DF93CDB7DEB76C97DEBF29
:10162000CDBF1092E9008091E80083FF25C068E0FB
:10163000CE0145960E949E0282EF8093E8008D893C
:1016400087FF39C09091E80090FFFCCF982F9076EB
:1016500009F034C19E894F89588D2F89F88C9111DA
:1016600031C0803861F58091B0018093F100109213
:10167000F1008EEF8093E8006C960FB6F894DEBF11
:101680000FBECDBFDF91CF91FF91EF91BF91AF9191
:101690009F918F917F916F915F914F913F912F918A
:1016A0001F910F91FF90EF90DF90CF900F900FBEA2
:1016B0000F901F9018959EEF9093E800C7CF10925F
:1016C000F100D5CF913059F48111D3CF413051057C
:1016D00081F68091B0018D7F8093B001CACF9330A5
:1016E00049F48111C6CF4130510519F68091B001FE
:1016F0008260F2CF953041F48091E80080FFFCCF0A
:1017000020682093E300B5CF963009F0A9C00B8D77
:101710001C8D22E01092E9001092AC011092AB01F6
:10172000F2122EC01092AA011092A9010E94EC029E
:101730001F8299E09983FA8291E09E8390EA9887CC
:101740009AEF99872091AB013091AC01275F3F4F11
:101750003C832B838D831092E9001092AC01109290
:10176000AB011093AA010093A90149E050E0BE012A
:101770006F5F7F4F80E00E9462020E94EC0279CF8F
:101780001093AA010093A9010E94D802DC011296CD
:101790000D911C910115110509F451C1D801ED916C
:1017A000FC910480F581E02DBE016B5E7F4FC80186
:1017B0000995009709F03EC1F80100851185EACF2F
:1017C000F3E0FF120EC08F89882309F440C08230F5
:1017D00061F440E86BE084EA91E00E942F028111FD
:1017E00048CF81E28093EB0047CF813029F440E875
:1017F0006BE088E991E0F1CF833099F70E94D8023D
:10180000DC011296ED90FC908E010F5F1F4F680176
:10181000E114F10479F0D701ED91FC910680F78194
:10182000E02DB801C7010995080F111DF701E084EB
:10183000F184EECFD8011C92F60101900020E9F767
:101840003197BF016C197D0940E0C601C6CF62E83F
:1018500071E0FB01449150E080E80E94620209CFF0
:10186000973009F4BECF983021F481E08093F100E5
:1018700000CF993009F0FDCE837009F0B2CFE2E0DD
:10188000F1E081E031E096E32191222371F0809331
:10189000E9003093EB00DF0111972C912093EC00CD
:1018A0009093ED008F5F873079F78EE78093EA00A1
:1018B0001092EA008F898093DC01DBCE8B8D9C8DAA
:1018C0001092E9001092AC011092AB019093AA0122
:1018D0008093A901898D811192C08E899D89913A49
:1018E00049F4813209F07DCF47E050E06CE071E0CF
:1018F00080E0B3CF913209F074CF833269F48F89DD
:10190000988DB0E0A0E08093080190930901A09326
:101910000A01B0930B01ADCE803269F48091E800EA
:1019200082FFFCCF67E08CE091E00E949E028BEF8B
:101930008093E8009ECE823209F09BCE8F898093FF
:101940001301EEEFFFE7859194918B3F9C4D51F190
:10195000E0E0F8E080910C0190910D01A0910E0162
:10196000B0910F01803B9440A105B105F1F4809145
:10197000130180FD1AC0EE3F8AE0F80789F587E77A
:1019800097E791838083809160008093AD0188E127
:101990009BE00FB6F894A895809360000FBE9093DB
:1019A000600067CEEEEFFAE0D5CF80819181873776
:1019B000974709F05ECEA89580916000886180937A
:1019C00060008091AD0180936000EE3F2AE0F20755
:1019D00089F08091FE0A9091FF0A9183808349CE1D
:1019E000808191818737980751F29093FF0A809305
:1019F000FE0AC5CF1092FF0A1092FE0A3ACE0E944C
:101A0000D802DC0112960D911C910115110509F403
:101A1000E8CED801ED91FC910190F081E02DBE015E
:101A20006B5E7F4FC8010995811123CEF8010085B7
:101A30001185EBCF181619060CF41BCED2CEF1E0AF
:101A4000FF12BECE66E871E004CF1F920F920FB670
:101A50000F9211248F939F93AF93BF93EF93FF93B4
:101A60008091A5019091A601A091A701B091A80134
:101A7000892B8A2B8B2BA1F19091A401E091A201DB
:101A8000F091A3018081892780838091A5019091A5
:101A9000A601A091A701B091A801181619061A066F
:101AA0001B069CF48091A5019091A601A091A7012D
:101AB000B091A8010197A109B1098093A501909364
:101AC000A601A093A701B093A801FF91EF91BF9148
:101AD000AF919F918F910F900FBE0F901F9018950F
:101AE000809171008D7F809371008091A401E091BD
:101AF000A201F091A3019081809589238083E5CF95
:101B00001F920F920FB60F9211242F933F934F9372
:101B10005F936F937F938F939F93AF93BF93EF9355
:101B2000FF938DE292E00E946E03FF91EF91BF91CF
:101B3000AF919F918F917F916F915F914F913F9165
:101B40002F910F900FBE0F901F9018951F920F921C
:101B50000FB60F9211242F938F939F93EF93FF93C0
:101B6000E0913D02F0913E028081E0914302F091CC
:101B7000440282FD1BC09081809146028F5F8F736B
:101B800020914702821741F0E0914602F0E0E35DC8
:101B9000FD4F958F80934602FF91EF919F918F911A
:101BA0002F910F900FBE0F901F9018958081F4CF4A
:101BB0001F920F920FB60F9211242F933F938F9382
:101BC0009F93AF93BF938091B1019091B201A09187
:101BD000B301B091B4013091910123E0230F2D376F
:101BE00058F50196A11DB11D209391018093B1017B
:101BF0009093B201A093B301B093B401809192018C
:101C000090919301A0919401B09195010196A11D2D
:101C1000B11D8093920190939301A0939401B0938E
:101C20009501BF91AF919F918F913F912F910F900F
:101C30000FBE0F901F90189526E8230F0296A11D46
:101C4000B11DD2CF1F920F920FB60F9211242F9376
:101C50003F934F935F936F937F938F939F93AF9334
:101C6000BF93EF93FF9310928500109284008091B0
:101C70009001882311F161E080918F010E9470042E
:101C800088EE93E090938900809388008091900182
:101C900091E0892780939001FF91EF91BF91AF91DF
:101CA0009F918F917F916F915F914F913F912F9174
:101CB0000F900FBE0F901F90189560E080918F01DC
:101CC0000E94700420918E0130918D0180918B01D2
:101CD00090918C012317A0F010928E018C509E4F92
:101CE000919581959109880F991F885390459093FC
:101CF00089008093880010928C0110928B01C6CFCE
:101D0000E22FF0E0EE0FFF1FE958FE4F40815181B6
:101D1000445F5140440F551F509389004093880001
:101D200040815181840F951F90938C0180938B018A
:101D30002F5F20938E01AACFBF92CF92DF92EF92B6
:101D4000FF920F931F93CF93DF93CDB7DEB7C659A2
:101D5000D1090FB6F894DEBF0FBECDBF1092E001DF
:101D60001092DF0188EE93E0A0E0B0E08093E10103
:101D70009093E201A093E301B093E4012AE231E001
:101D80003093DE012093DD012FEF3FEF3093EA0126
:101D90002093E9011092300210922F0280933102B9
:101DA00090933202A0933302B09334028CE391E01B
:101DB00090932E0280932D028DEC90E090933A0246
:101DC000809339028CEC90E090933C0280933B022C
:101DD00088EC90E090933E0280933D0289EC90E085
:101DE0009093400280933F028AEC90E090934202ED
:101DF000809341028EEC90E09093440280934302E2
:101E00001092460210924702109248021092490224
:101E10001092E9021092E8021092EC021092F10284
:101E20001092F0028FEF93E09093F3028093F2020E
:101E30001092F5021092F4029093F7028093F6024A
:101E40001092F9021092F8029093FB028093FA022A
:101E50001092FD021092FC029093FF028093FE020A
:101E600010920103109200039093030380930203E6
:101E700010920503109204039093070380930603C6
:101E8000109209031092080390930B0380930A03A6
:101E900010920D0310920C0390930F0380930E0386
:101EA0001092110310921003909313038093120366
:101EB0001092150310921403909317038093160346
:101EC000109219031092180390931B0380931A0326
:101ED00010921D0310921C0390931F0380931E0306
:101EE00010922103109220039093230380932203E6
:101EF00043E04093240330E23093EB0222E020934E
:101F0000ED02FFEFF093EE024093EF0265E069838C
:101F100091E09A8389E08B83A4E0AC83E1EAED83CE
:101F20009E8355E85F83488769878A8749E14B87A5
:101F30009C8749E24D873E8705E10F87188A15E2A5
:101F4000198B9A8B55E75B8B9C8B45E94D8B3E8BB0
:101F500035E53F8B188EB5E6B98F1A8E31E83B8F89
:101F60002C8F6D8F9E8F8F8F79E3B72EB8A209A328
:101F70001AA21BA377E0C72ECCA275E37DA31EA2F5
:101F80000F2EF6E4DF2EF02DDFA20F2EFBE3EF2E57
:101F9000F02DE8A699A7BAA70F2EF4E1FF2EF02D99
:101FA000FBA65CA7ADA74EA79FA738AB29AB8AAB12
:101FB000BBAA0CAB1DAA1EABCFAA78AF19AEDAAE86
:101FC000EBAE9CAFBDAFFEAE5FAF2196AFAF21973A
:101FD00022964FAF229723969FAF239724963FAF29
:101FE000249725962FAF259726968FAF269727966D
:101FF0009FAF2797A6E1FA2E2896FFAE289729963D
:102000009FAF299700E82A960FAF2A9716E22B96E2
:102010001FAF2B972C96FFAF2C97BFE72D96BFAF26
:102020002D972E965FAF2E97A0E12F96AFAF2F97EB
:1020300060964FAF60976894EE24E3F86196EFAE38
:1020400061976296EFAF629763961FAE639764964F
:102050008FAF64970F2EF0E3EF2EF02D6596EFAE65
:10206000659766968FAF66970F2EF1E3EF2EF02DF2
:102070006796EFAE679768968FAF68970F2EF2E37B
:10208000EF2EF02D6996EFAE69976A968FAF6A973B
:102090000F2EF3E3EF2EF02D6B96EFAE6B976C9651
:1020A0008FAF6C970F2EF4E3EF2EF02D6D96EFAE01
:1020B0006D976E968FAF6E976F967FAF6F97A09666
:1020C0008FAFA09776E3A1967FAFA197A2968FAF2F
:1020D000A29777E3A3967FAFA397A4963FAFA49769
:1020E000A5962FAFA59770ECA6967FAFA697A7965B
:1020F0006FAFA797A8962FAFA897A996FFAEA997FD
:10210000AA969FAFAA97AB960FAFAB97AC961FAFAF
:10211000AC97AD96FFAFAD97AE96BFAFAE97AF960B
:102120005FAFAF97E096AFAFE097E1964FAFE19723
:10213000E2962FAFE297E396EFAFE397E4961FAEF8
:10214000E497E5968FAFE5979AEBE6969FAFE69713
:10215000E7968FAFE7978BEBE8968FAFE897E99616
:102160003FAFE997EA962FAFEA97EB967FAFEB97F1
:10217000EC967FAFEC978BE790E00E947A1C7C0195
:102180008BE7FE013196D70101900D928A95E1F718
:1021900087E090E00E947A1C8C01DC0111961C9271
:1021A0001E921396FC92EE9212978BE790E0159692
:1021B0009C938E93149716961C920E94C006FC0165
:1021C000A385B485109709F07BC0148703878585A4
:1021D0009685D80114962D913C91820F931F968776
:1021E00085879091EB02892F8695869586959770C5
:1021F00009F06EC08093EC021091EC02812F90E008
:102200000E947A1C9093E9028093E80281E0909109
:10221000ED02911101C080E01C5E810F80932503C7
:102220001092CB021092CA021092CD021092CC02F0
:102230001092CF021092CE021092D1021092D002D0
:102240001092D3021092D2021092D5021092D402B0
:102250001092D7021092D6021092D9021092D80290
:102260001092DB021092DA021092DD021092DC0270
:102270001092DF021092DE021092E1021092E00250
:102280001092E3021092E2028FEF9FEF9093E5022B
:102290008093E4029093E7028093E60290E080E06E
:1022A0002091EC0228171906A9F0A4F0E091E802A9
:1022B000F091E902E80FF91F10820196F1CFDC01DD
:1022C0008D919C9111970097D1F70D931C937FCF1F
:1022D0008F5F90CFCA56DF4F0FB6F894DEBF0FBEA8
:1022E000CDBFDF91CF911F910F91FF90EF90DF90C5
:1022F000CF90BF900895CF93DF93CDB7DEB76797A8
:102300000FB6F894DEBF0FBECDBF789484B582605F
:1023100084BD84B5816084BD85B5826085BD85B589
:10232000816085BD80916E00816080936E00109207
:102330008100809181008260809381008091810082
:102340008160809381008091800081608093800013
:1023500080919100826080939100809191008160D2
:102360008093910080919000816080939000809193
:10237000C10084608093C1008091C100826080931D
:10238000C1008091C10081608093C1008091C30031
:1023900081608093C3008091C00082608093C00000
:1023A0008091C20081608093C20080917A00846035
:1023B00080937A0080917A00826080937A00809185
:1023C0007A00816080937A0080917A00806880939F
:1023D0007A001092DC011092B0011092AF0180914E
:1023E000D70081608093D70080EA8093D80089B5B8
:1023F000806189BD89B5826089BD09B400FEFDCFC9
:1024000061E070E080E090E00E9416058091D800C5
:102410008F7C80618093D8008091E000807F8093E2
:10242000E0008091E1008E7E8093E1008DE080935A
:10243000E200559A209A81E08093EA020E949C086B
:1024400021E83FEF3093F1022093F0028FE790E014
:102450009093F3028093F2023093F5022093F402FA
:102460009093F7028093F6023093F9022093F802DA
:102470009093FB028093FA023093FD022093FC02BA
:102480009093FF028093FE02309301032093000398
:102490009093030380930203309305032093040376
:1024A0009093070380930603109209031092080388
:1024B0002FEF30E030930B0320930A0310920D03AB
:1024C00010920C0330930F0320930E03109211030C
:1024D00010921003309313032093120310921503EC
:1024E0001092140330931703209316039093DD0288
:1024F0008093DC028091EA0281110E949C088FE7A0
:1025000090E09093DF028093DE028091EA028111D5
:102510000E949C088FE790E09093E1028093E00294
:102520008091EA0281110E949C088FE790E09093CD
:10253000E3028093E2028091EA0281110E949C08EA
:1025400062E086E00E949E0462E084E00E949E04B5
:1025500062E087E00E949E0462E088E00E949E04A0
:1025600062E080E10E949E0462E08EE00E949E0490
:1025700062E085E00E949E0461E083E00E949E0488
:1025800061E082E00E949E04E0913D02F0913E02F3
:1025900082E08083E0913902F0913A021082E0916A
:1025A0003B02F0913C0283E3808310924502E0916C
:1025B0004102F091420286E08083E0913F02F09177
:1025C0004002808180618083E0913F02F09140026F
:1025D000808188608083E0913F02F0914002808199
:1025E00080688083E0913F02F091400280818F7D7E
:1025F000808361E082E00E94700464E670E080E025
:1026000090E00E94160585E00E944704892B09F09E
:102610007DC264EF71E080E090E00E94160588EED4
:1026200093E00E94320782E10E94CF04BC01990F1F
:10263000880B990B0E942A1B20E030E040E05FE30A
:102640000E94141A20E030E040E251E40E94801A17
:1026500020E030E0A9010E94B61B87FD03C282E1A1
:102660000E94CF04BC01990F880B990B0E942A1B72
:1026700020E030E040E05FE30E94141A20E030E008
:1026800040E251E40E94801A20E030E040E05FE345
:102690000E94141A0E94F21A2AE0269FA001279F86
:1026A000500D11245093DA014093D9015093D60173
:1026B0004093D501BA0182E090E00E94750A6091D2
:1026C000D5017091D6018EE090E00E94750A83E1F9
:1026D0000E94CF04BC01990F880B990B0E942A1B02
:1026E00020E030E040E05FE30E94141A20E030E098
:1026F00040E251E40E94801A20E030E0A9010E94EB
:10270000B61B87FDCBC183E10E94CF04BC01990FAA
:10271000880B990B0E942A1B20E030E040E05FE329
:102720000E94141A20E030E040E251E40E94801A36
:1027300020E030E040E05FE30E94141A0E94F21AA9
:102740002AE0269FA001279F500D11245093D40109
:102750004093D3015093D0014093CF01BA0186E05A
:1027600090E00E94750A6091CF017091D00186E1DE
:1027700090E00E94750A85E10E94CF04BC01990F88
:10278000880B990B0E942A1B20E030E040E05FE3B9
:102790000E94141A20E030E040E251E40E94801AC6
:1027A00020E030E0A9010E94B61B87FD93C185E1BE
:1027B0000E94CF04BC01990F880B990B0E942A1B21
:1027C00020E030E040E05FE30E94141A20E030E0B7
:1027D00040E251E40E94801A20E030E040E05FE3F4
:1027E0000E94141A0E94F21A2AE0269FA001279F35
:1027F000500D11245093CE014093CD015093CA0146
:102800004093C901BA018AE090E00E94750A609184
:10281000C9017091CA018EE190E00E94750A84E1BD
:102820000E94CF049093C6018093C501BC0186E24B
:1028300090E00E94750A8CE10E94CF049093C2013F
:102840008093C101BC018EE290E00E94750A82E192
:102850000E94CF042091D5013091D60182179307B1
:1028600084F482E10E94CF049093D6018093D50135
:10287000BC018EE090E00E94750A84E190E00E9425
:10288000320782E10E94CF042091D7013091D80114
:102890002817390784F482E10E94CF049093D8016D
:1028A0008093D701BC0182E190E00E94750A84E127
:1028B00090E00E94320783E10E94CF042091CF0173
:1028C0003091D0018217930784F483E10E94CF04F2
:1028D0009093D0018093CF01BC0186E190E00E94EB
:1028E000750A84E190E00E94320783E10E94CF04E0
:1028F0002091D1013091D2012817390784F483E166
:102900000E94CF049093D2018093D101BC018AE14F
:1029100090E00E94750A84E190E00E94320785E110
:102920000E94CF042091C9013091CA0182179307F8
:1029300084F485E10E94CF049093CA018093C90179
:10294000BC018EE190E00E94750A84E190E00E9453
:10295000320785E10E94CF042091CB013091CC0158
:102960002817390784F485E10E94CF049093CC01A5
:102970008093CB01BC0182E290E00E94750A84E161
:1029800090E00E94320784E10E94CF042091C501AB
:102990003091C6018217930784F484E10E94CF042A
:1029A0009093C6018093C501BC0186E290E00E942D
:1029B000750A84E190E00E94320784E10E94CF040E
:1029C0002091C7013091C8012817390784F484E1A8
:1029D0000E94CF049093C8018093C701BC018AE292
:1029E00090E00E94750A84E190E00E9432078CE139
:1029F0000E94CF042091C1013091C2018217930738
:102A000084F48CE10E94CF049093C2018093C101B1
:102A1000BC018EE290E00E94750A84E190E00E9481
:102A200032078CE10E94CF042091C3013091C40190
:102A30002817390784F48CE10E94CF049093C401D5
:102A40008093C301BC0182E390E00E94750A84E197
:102A500090E00E94320768EC70E080E090E00E9415
:102A60001605F5CE82E10E94CF04BC01990F880BB8
:102A7000990B0E942A1B20E030E040E05FE30E94B7
:102A8000141A20E030E040E251E40E94801A20E075
:102A900030E040E05FE30E94131AFCCD83E10E9426
:102AA000CF04BC01990F880B990B0E942A1B20E0D0
:102AB00030E040E05FE30E94141A20E030E040E2A2
:102AC00051E40E94801A20E030E040E05FE30E9481
:102AD000131A34CE85E10E94CF04BC01990F880BF4
:102AE000990B0E942A1B20E030E040E05FE30E9447
:102AF000141A20E030E040E251E40E94801A20E005
:102B000030E040E05FE30E94131A6CCE82E090E078
:102B10000E94640A9093DA018093D90186E090E0E4
:102B20000E94640A9093D4018093D3018AE090E0DC
:102B30000E94640A9093CE018093CD018EE090E0D4
:102B40000E94640A9093D6018093D50182E190E0BF
:102B50000E94640A9093D8018093D70186E190E0A7
:102B60000E94640A9093D0018093CF018AE190E0A3
:102B70000E94640A9093D2018093D1018EE190E08B
:102B80000E94640A9093CA018093C90182E290E096
:102B90000E94640A9093CC018093CB0186E290E07E
:102BA0000E94640A9093C6018093C5018AE290E076
:102BB0000E94640A9093C8018093C7018EE290E05E
:102BC0000E94640A9093C2018093C10182E390E065
:102BD0000E94640A9093C4018093C3018FB7F89454
:102BE000C090B101D090B201E090B301F090B40177
:102BF0008FBF82E10E94CF04BC01990F880B990B13
:102C00000E942A1B20E030E040E05FE30E94141A9B
:102C100020E030E040E251E40E94801A20E030E001
:102C2000A9010E94B61B87FDD6C182E10E94CF0494
:102C3000BC01990F880B990B0E942A1B20E030E001
:102C400040E05FE30E94141A20E030E040E251E4EB
:102C50000E94801A20E030E040E05FE30E94141AF6
:102C60000E94F21A9B01AC01AAE0B0E00E94D719C1
:102C70002091D9013091DA018901330F220B330BF6
:102C8000712C061717072807390751F18090D701D3
:102C90009090D801092C000CAA08BB084090D501DF
:102CA0005090D601052C000C6608770882E10E943E
:102CB000CF049C01990F440B550B24193509460983
:102CC0005709AEEFB0E00E94D719A501940124196D
:102CD0003509460957090E94B81981E8782E720E05
:102CE00083E10E94CF04BC01990F880B990B0E94CD
:102CF0002A1B20E030E040E05FE30E94141A20E04D
:102D000030E040E251E40E94801A20E030E0A90166
:102D10000E94B61B87FD7BC183E10E94CF04BC01EA
:102D2000990F880B990B0E942A1B20E030E040E0AD
:102D30005FE30E94141A20E030E040E251E40E9478
:102D4000801A20E030E040E05FE30E94141A0E9405
:102D5000F21A9B01AC01AAE0B0E00E94D7192091C1
:102D6000D3013091D4018901330F220B330B0617A5
:102D700017072807390709F466C18090D1019090A0
:102D8000D201092C000CAA08BB082090CF0130907A
:102D9000D001032C000C4408550883E10E94CF04A5
:102DA0009C01990F440B550B22193309440955090D
:102DB000AEEFB0E00E94D719A501940122193309A2
:102DC000440955090E94B8192F572B8B85E10E94A1
:102DD000CF04BC01990F880B990B0E942A1B20E09D
:102DE00030E040E05FE30E94141A20E030E040E26F
:102DF00051E40E94801A20E030E0A9010E94B61B35
:102E000087FD23C185E10E94CF04BC01990F880B87
:102E1000990B0E942A1B20E030E040E05FE30E9413
:102E2000141A20E030E040E251E40E94801A20E0D1
:102E300030E040E05FE30E94141A0E94F21A9B0106
:102E4000AC01AAE0B0E00E94D7192091CD013091E9
:102E5000CE018901330F220B330B06171707280702
:102E6000390709F40EC12090CB013090CC01032C1E
:102E7000000C440855088090C9019090CA01092CA3
:102E8000000CAA08BB0885E10E94CF049C01990FA1
:102E9000440B550B281939094A095B09AEEFB0E01C
:102EA0000E94D719A2019101281939094A095B0921
:102EB0000E94B81901E8020F2090C7013090C801A4
:102EC000032C000C440855088090C5019090C60161
:102ED000092C000CAA08BB0884E10E94CF049C01C5
:102EE000990F440B550B281939094A095B09AFEFB3
:102EF000B0E00E94D719A2019101281939094A09A5
:102F00005B090E94B819622E522E86E00E94470487
:102F100021E0892B09F020E0922E919484E00E9418
:102F2000470421E0892B09F020E0A22EA19487E03C
:102F30000E944704019709F4A6C087E00E94470455
:102F400010E0892B41F488E00E94470411E00197CA
:102F500009F010E0119580E10E94470421E0892BDF
:102F600009F020E0B22EB1948EE00E94470421E0E7
:102F7000892B09F020E0822E81942091C3013091A9
:102F8000C4013D8B2C8B2090C1013090C2018CE19B
:102F90000E94CF049F8B8E8B85E00E944704892B73
:102FA00009F081C084E690E00C390CF0A1C00E94C9
:102FB00032078091C00181116EC03FEF3093C00194
:102FC00062E370E080E090E00E94160584E690E005
:102FD0000E94320762C082E10E94CF04BC01990FB7
:102FE000880B990B0E942A1B20E030E040E05FE351
:102FF0000E94141A20E030E040E251E40E94801A5E
:1030000020E030E040E05FE30E94131A29CE83E124
:103010000E94CF04BC01990F880B990B0E942A1BB8
:1030200020E030E040E05FE30E94141A20E030E04E
:1030300040E251E40E94801A20E030E040E05FE38B
:103040000E94131A84CE1B8AC1CE85E10E94CF0450
:10305000BC01990F880B990B0E942A1B20E030E0DD
:1030600040E05FE30E94141A20E030E040E251E4C7
:103070000E94801A20E030E040E05FE30E94131AD3
:10308000DCCE00E019CF88E00E944704019709F0E8
:1030900054CF1FE760CF1092C0016CE271E080E076
:1030A00090E00E9416058091BD01811140C099E019
:1030B000951590F1911030C0A1102EC011112CC0A7
:1030C000B1102AC0811028C0E1E0E093BD0188EC76
:1030D00090E00E943207E0E0F0E0EF2B09F47ECDB3
:1030E0000E945A03882309F479CD0E94000076CD0E
:1030F00005362CF00E9432076092BF01CECF0E94AD
:1031000032078091BE01811104C08FEF8093BE0110
:1031100057CF1092BE01C1CF82E390E00E943207E8
:103120006CE271E080E090E00E941605D4CF872D1C
:10313000072C000C990B9093CB028093CA028091CC
:10314000EA0281110E949C08FB898F2FFF0F990BC7
:103150009093CD028093CC028091EA0281110E946B
:103160009C08262D2F57330B3093CF022093CE028D
:103170008091EA0281110E949C08802F002E000C91
:10318000990B9093D1028093D0028091EA02811131
:103190000E949C08692D70E090E080E00E942A1B4C
:1031A00026EA3BE944EB5FE30E94BB1B0E94F21A54
:1031B0007093D3026093D2028091EA0281110E943F
:1031C0009C086A2D70E090E080E00E942A1B26EAAD
:1031D0003BE944EB5FE30E94BB1B0E94F21A709331
:1031E000D5026093D4028091EA0281110E949C086A
:1031F000812F90E09093D7028093D6028091EA02CB
:1032000081110E949C088B2D90E09093DD028093A9
:10321000DC028091EA0281110E949C08882D90E0D6
:103220009093DB028093DA028091EA0281110E947E
:103230009C08032C000C440855088E899F899C012A
:10324000990F440B550B2219330944095509AFEF67
:10325000B0E00E94D719EC89FD899F01FF0F440B54
:10326000550B22193309440955090E94B819522EE9
:10327000822F90E09093D9028093D8028091EA0245
:1032800081110E949C088091B9019091BA01A0918E
:10329000BB01B091BC018C159D05AE05BF0578F44E
:1032A0000E949C08D701C6010F96A11DB11D8093F5
:1032B000B9019093BA01A093BB01B093BC011D86E4
:1032C0001E861F86188A85E18983F7E3FA832AEF31
:1032D0002B837C823B893D836E820F839886A986EF
:1032E0001A87BB868C865D868091BE01888B809113
:1032F000C001898B8091BF018A8B8091B50190912B
:10330000B601A091B701B091B8018C159D05AE052D
:10331000BF0508F0E0CE42E150E0BE016F5F7F4F95
:103320008DE292E00E94AB0284E1C80ED11CE11C48
:10333000F11CC092B501D092B601E092B701F092B3
:10334000B801C9CEF999FECF92BD81BDF89A9927EF
:1033500080B50895262FF999FECF1FBA92BD81BD81
:1033600020BD0FB6F894FA9AF99A0FBE0196089507
:10337000052E97FB1EF400940E94CF1957FD07D02D
:103380000E94E21907FC03D04EF40C94CF1950951B
:103390004095309521953F4F4F4F5F4F0895909541
:1033A0008095709561957F4F8F4F9F4F08950E9434
:1033B000041AA59F900DB49F900DA49F800D911DA0
:1033C00011240895A1E21A2EAA1BBB1BFD010DC0FA
:1033D000AA1FBB1FEE1FFF1FA217B307E407F507C5
:1033E00020F0A21BB30BE40BF50B661F771F881FA1
:1033F000991F1A9469F760957095809590959B0137
:10340000AC01BD01CF010895A29FB001B39FC001DF
:10341000A39F700D811D1124911DB29F700D811D00
:103420001124911D08955058BB27AA270E942B1ADA
:103430000C947C1B0E946E1B38F00E94751B20F0C0
:1034400039F49F3F19F426F40C946B1B0EF4E095AD
:10345000E7FB0C94651BE92F0E948D1B58F3BA17EC
:10346000620773078407950720F079F4A6F50C949A
:10347000AF1B0EF4E0950B2EBA2FA02D0B01B90156
:1034800090010C01CA01A0011124FF27591B99F0DA
:10349000593F50F4503E68F11A16F040A22F232FE6
:1034A000342F4427585FF3CF469537952795A79536
:1034B000F0405395C9F77EF41F16BA0B620B730BDD
:1034C000840BBAF09150A1F0FF0FBB1F661F771F4E
:1034D000881FC2F70EC0BA0F621F731F841F48F403
:1034E000879577956795B795F7959E3F08F0B0CF8C
:1034F0009395880F08F09927EE0F97958795089573
:103500000E94941A0C947C1B0E94751B58F00E9418
:103510006E1B40F029F45F3F29F00C94651B51119C
:103520000C94B01B0C946B1B0E948D1B68F39923A9
:10353000B1F3552391F3951B550BBB27AA276217AF
:103540007307840738F09F5F5F4F220F331F441FBC
:10355000AA1FA9F335D00E2E3AF0E0E832D09150F0
:103560005040E695001CCAF72BD0FE2F29D0660FDD
:10357000771F881FBB1F261737074807AB07B0E820
:1035800009F0BB0B802DBF01FF2793585F4F3AF026
:103590009E3F510578F00C94651B0C94B01B5F3F67
:1035A000E4F3983ED4F3869577956795B795F795AC
:1035B0009F5FC9F7880F911D9695879597F9089594
:1035C000E1E0660F771F881FBB1F62177307840730
:1035D000BA0720F0621B730B840BBA0BEE1F88F73F
:1035E000E09508950E94F91A6894B1110C94B01BEB
:1035F00008950E94951B88F09F5798F0B92F99273E
:10360000B751B0F0E1F0660F771F881F991F1AF0CD
:10361000BA95C9F714C0B13091F00E94AF1BB1E068
:1036200008950C94AF1B672F782F8827B85F39F067
:10363000B93FCCF3869577956795B395D9F73EF466
:1036400090958095709561957F4F8F4F9F4F08950E
:10365000E89409C097FB3EF490958095709561952C
:103660007F4F8F4F9F4F9923A9F0F92F96E9BB27E2
:103670009395F695879577956795B795F111F8CF5E
:10368000FAF4BB0F11F460FF1BC06F5F7F4F8F4FC9
:103690009F4F16C0882311F096E911C0772321F0BF
:1036A0009EE8872F762F05C0662371F096E8862F57
:1036B00070E060E02AF09A95660F771F881FDAF7AE
:1036C000880F9695879597F9089597F99F6780E8F1
:1036D00070E060E008959FEF80EC089500240A9464
:1036E0001616170618060906089500240A941216DD
:1036F0001306140605060895092E0394000C11F410
:10370000882352F0BB0F40F4BF2B11F460FF04C0BC
:103710006F5F7F4F8F4F9F4F089557FD9058440F15
:10372000551F59F05F3F71F04795880F97FB991F20
:1037300061F09F3F79F087950895121613061406DD
:10374000551FF2CF4695F1DF08C01616170618066A
:10375000991FF1CF86957105610508940895E89445
:10376000BB2766277727CB0197F908950E94281C6D
:1037700008F48FEF08950E94CE1B0C947C1B0E94CE
:103780006E1B38F00E94751B20F0952311F00C94ED
:10379000651B0C946B1B11240C94B01B0E948D1B99
:1037A00070F3959FC1F3950F50E0551F629FF00194
:1037B000729FBB27F00DB11D639FAA27F00DB11DAD
:1037C000AA1F649F6627B00DA11D661F829F222736
:1037D000B00DA11D621F739FB00DA11D621F839FBD
:1037E000A00D611D221F749F3327A00D611D231F93
:1037F000849F600D211D822F762F6A2F11249F57E1
:1038000050409AF0F1F088234AF0EE0FFF1FBB1FE3
:10381000661F771F881F91505040A9F79E3F5105A2
:1038200080F00C94651B0C94B01B5F3FE4F3983E52
:10383000D4F3869577956795B795F795E7959F5F4C
:10384000C1F7FE2B880F911D9695879597F90895DE
:10385000990F0008550FAA0BE0E8FEEF16161706A1
:10386000E807F907C0F012161306E407F50798F009
:10387000621B730B840B950B39F40A2661F0232B22
:10388000242B252B21F408950A2609F4A140A6959E
:103890008FEF811D811D0895AA1BBB1B51E107C03D
:1038A000AA1FBB1FA617B70710F0A61BB70B881FD0
:1038B000991F5A95A9F780959095BC01CD0108955F
:1038C00097FB072E16F4009407D077FD09D00E94CD
:1038D0004C1C07FC05D03EF4909581959F4F0895B0
:1038E000709561957F4F0895EE0FFF1F0590F4913D
:1038F000E02D09940F931F93CF93DF9382309105AE
:1039000010F482E090E0E0912803F091290330E088
:1039100020E0B0E0A0E0309799F42115310509F4DA
:103920004AC0281B390B24303105D8F58A819B8188
:103930006115710589F1FB0193838283FE0111C03A
:10394000408151810281138148175907E0F04817DF
:10395000590799F4109761F012960C9312971396E9
:103960001C933296CF01DF91CF911F910F91089553
:103970000093280310932903F4CF2115310551F04A
:103980004217530738F0A901DB019A01BD01DF019D
:10399000F801C1CFEF01F9CF909329038093280359
:1039A000CDCFFE01E20FF31F819391932250310995
:1039B00039832883D7CF2091260330912703232BE7
:1039C00041F4209116013091170130932703209381
:1039D000260320911401309115012115310541F480
:1039E0002DB73EB74091180150911901241B350B9A
:1039F000E0912603F0912703E217F307A0F42E1BB2
:103A00003F0B2817390778F0AC014E5F5F4F241742
:103A1000350748F04E0F5F1F50932703409326034E
:103A2000819391939FCFF0E0E0E09CCFCF93DF9321
:103A30000097E9F0FC01329713821282A0912803CB
:103A4000B0912903ED0130E020E01097A1F420812E
:103A50003181820F931F209126033091270328176D
:103A6000390709F061C0F0932703E0932603DF9143
:103A7000CF910895EA01CE17DF07E8F54A815B810F
:103A80009E0141155105B1F7E901FB83EA83499194
:103A90005991C40FD51FEC17FD0761F48081918106
:103AA0000296840F951FE90199838883828193810F
:103AB0009B838A83F0E0E0E012968D919C911397AE
:103AC0000097B9F52D913C911197CD010296820F87
:103AD000931F20912603309127032817390739F6C1
:103AE000309751F51092290310922803B0932703C1
:103AF000A0932603BCCFD383C28340815181840F1E
:103B0000951FC817D90761F44E5F5F4F888199816F
:103B1000480F591F518340838A819B8193838283FD
:103B20002115310509F0B0CFF0932903E093280364
:103B30009ECFFD01DC01C0CF13821282D7CFFB01E3
:103B4000DC0102C001900D9241505040D8F7089519
:043B5000F894FFCF17
:103B5400FF00C18081000000FFFFFFFF00E10000C3
:103B64000000000000002A03800000000000F905A6
:103B7400750637061C06000000008401E30599025F
:103B84009A01E701A501C301000000008F03AB0205
:0A3B94001D03DB034E032C03400366
:00000001FF
