:100000000C948F000C94B7000C94B7000C94B700BC
:100010000C94B7000C94B7000C94B7000C94B70084
:100020000C94B7000C94B7000C949B070C940A082E
:100030000C94B7000C94B7000C94B7000C94B70064
:100040000C94B7000C94B7000C94B7000C94B70054
:100050000C94B7000C94B7000C94B7000C94940A5D
:100060000C94B7000C94620A0C943C0A0C94B700F0
:100070000C94B7000C94B7000C94B7000C94B70024
:100080000C94B7000C94B7000C94B7000C94B70014
:100090000C94B7000C94B7000C94B7000C94B70004
:1000A0000C94B7000C94B7000C94B700080B000236
:1000B0000202000009040000010202000005240001
:1000C0001001052401010104240206052406000193
:1000D0000705810310004009040100020A00000026
:1000E00007050202400000070583024000000403E8
:1000F000090412010002EF02014041233680000191
:100100000102030141726475696E6F204C4C43001B
:10011000415244552052656D6F746500DE0A11240A
:100120001FBECFEFDAE0DEBFCDBF11E0A0E0B1E04F
:10013000EEE7F3E202C005900D92AA35B107D9F7B8
:1001400022E0AAE5B1E001C01D92A63FB207E1F7A7
:1001500010E0CFE8D0E004C02197FE010E94891092
:10016000CE38D107C9F70E94BD0D0C94BD110C9477
:100170000000CF92DF92EF92FF920F931F93CF93E5
:10018000DF93D901E8016A01F9014217530714F01E
:100190006901FA01882309F440C0CB016C157D0583
:1001A0000CF4C6019F018E179F070CF49C01A41745
:1001B000B50734F4CF01821B930B9C012C0D3D1D20
:1001C0000D2C000CEE08FF08032E000C440B550B01
:1001D0002C193D094E095F09AEEFBFEF0E942510B3
:1001E0009F01FF0F440B550B2C193D094E095F0968
:1001F0000E940610DA01C9018F5F9F47A109B1096A
:100200008883998382E090E0DF91CF911F910F91D5
:10021000FF90EF90DF90CF90089590E080E0F4CFD2
:10022000FC018091A801882311F13FB7F89482E086
:100230008093E9002091F200822F90E018161906B1
:1002400014F481E090E0882339F0289844E6409344
:10025000A7014091F1004083222339F02091F20060
:10026000211103C02BE62093E8003FBF08958FEFD4
:100270009FEF08954091860150918701209184015C
:100280003091850142175307B4F49091E8009570BE
:10029000E1F39091E80092FD19C08093F100809104
:1002A00086019091870101968F739927892B19F404
:1002B0008EEF8093E80080918601909187010196EE
:1002C000909387018093860181E0089580E00895EE
:1002D000EF92FF920F931F93CF93DF93F82E192F76
:1002E000E62E042F81E0860F880F0E943A0183E0FA
:1002F0000E943A01CF2DD12FEC0EFD2EF11CCE1510
:10030000DF05B9F007FF13C0FE0184910E943A0196
:10031000182F80E00E943A01812321968111EFCFAE
:10032000DF91CF911F910F91FF90EF9008958881F9
:10033000EDCF81E0F5CFDF92EF92FF920F931F9305
:10034000CF93DF93D82E8A01EB017B01E40EF51EDB
:10035000CE15DF0559F0D7FE12C0FE0184910E9430
:100360003A0121968111F4CF0FEF1FEFC801DF9101
:10037000CF911F910F91FF90EF90DF9008958881AA
:10038000EECF2FB7F89487708093E9009091E80042
:10039000892F807295FF04C09091F20080E4891B40
:1003A0002FBF0895615030F02091F100FC012083AF
:1003B0000196F8CF289884E68093A7010895AF921C
:1003C000BF92CF92DF92EF92FF920F931F93CF9342
:1003D000DF936C017B018B01040F151FEB015E01A4
:1003E000AE18BF08C017D10759F06991D601ED9139
:1003F000FC910190F081E02DC6010995892B79F7D8
:10040000C501DF91CF911F910F91FF90EF90DF9089
:10041000CF90BF90AF90089580917C0181110DC065
:1004200082E08093780184E08093790110927B01CF
:1004300010927A0181E080937C0188E791E0089531
:100440000F931F93CF93DF931F92CDB7DEB782E058
:10045000898342E450E06CEA70E080E80E949B01EE
:100460000E940C02DC0112960D911C9101151105E0
:1004700089F0D801ED91FC910280F381E02DBE015D
:100480006F5F7F4FC801099597FD04C0F801008593
:100490001185ECCF89810F90DF91CF911F910F9142
:1004A0000895FC01538D448D252F30E0842F90E07A
:1004B000821B930B541710F0CF960895019708955F
:1004C000FC01918D828D981761F0A28DAE0FBF2F28
:1004D000B11D5D968C91928D9F5F9F73928F90E07E
:1004E00008958FEF9FEF0895FC01918D828D9817ED
:1004F00031F0828DE80FF11D858D90E008958FEF2A
:100500009FEF0895FC01918D228D892F90E0805CF2
:100510009F4F821B91098F739927089589EA91E073
:100520000E94820221E0892B09F420E0822F0895A5
:1005300080E090E0892B29F00E948E0281110C94BA
:1005400000000895FC01A48DA80FB92FB11DA35A76
:10055000BF4F2C91848D90E001968F739927848FE3
:10056000A689B7892C93A089B1898C9182748C93C8
:10057000938D848D981306C00288F389E02D8081C5
:100580008F7D80830895EF92FF920F931F93CF93F7
:10059000DF93EC0181E0888F9B8D8C8D981319C0BF
:1005A000E889F989808185FF14C09FB7F894EE89A6
:1005B000FF896083E889F9898081827480839FBF85
:1005C00081E090E0DF91CF911F910F91FF90EF902C
:1005D0000895F62E0B8D10E00F5F1F4F0F7311273C
:1005E000E02E8C8D8E110CC00FB607FCFACFE88977
:1005F000F989808185FFF5CFCE010E94A202F1CF5B
:10060000EB8DEC0FFD2FF11DE35AFF4FF0829FB7EA
:10061000F8940B8FEA89FB8980818062CFCFCF93DA
:10062000DF93EC01888D8823B9F0AA89BB89E8891A
:10063000F9898C9185FD03C0808186FD0DC00FB6C0
:1006400007FCF7CF8C9185FFF2CF808185FFEDCF3E
:10065000CE010E94A202E9CFDF91CF910895CF93FE
:10066000DF931F92CDB7DEB76983DC01ED91FC917A
:100670000280F381E02D41E050E0BE016F5F7F4FCB
:1006800009950F90DF91CF91089583E08093E90061
:100690008091F200882319F08AE38093E80008959E
:1006A00083E00E94C10190E00895CF93DF931F92F1
:1006B000CDB7DEB7FC018485958597FD08C02FEF87
:1006C0003FEF358724870F90DF91CF910895CE01BA
:1006D00001960E941001019719F4898190E0F3CFEF
:1006E0008FEF9FEFF0CF0F931F93CF93DF931F9266
:1006F000CDB7DEB78C01FC018485958597FF0BC0D3
:10070000CE0101960E941001019771F4898190E059
:10071000F80195878487F801848595850F90DF918E
:10072000CF911F910F9108958FEF9FEFF1CFFC01B3
:100730008485958597FD0BC09FB7F89482E08093E0
:10074000E9008091F2009FBF90E0019608959FB765
:10075000F89482E08093E9008091F2009FBF90E0DE
:1007600008953FB7F8948091740190917501A0911C
:100770007601B091770126B5A89B05C02F3F19F0EF
:100780000196A11DB11D3FBFBA2FA92F982F882711
:10079000BC01CD01620F711D811D911D42E0660FEC
:1007A000771F881F991F4A95D1F70895CF92DF923E
:1007B000EF92FF920E94B1036B017C010E94B10392
:1007C0006C197D098E099F09683E7340810591056A
:1007D000A8F3FF90EF90DF90CF9008957F928F92D3
:1007E0009F92AF92BF92CF92DF92EF92FF920F93C0
:1007F0001F93CF93DF93C82E8B017A018091A801BC
:10080000811110C08FEF9FEFDF91CF911F910F915A
:10081000FF90EF90DF90CF90BF90AF909F908F9020
:100820007F90089580918A0180FF05C08091E0004B
:1008300082608093E000CE2DDF2DD12C8AEFB82E80
:100840008C2D8770982E8C2D8072882E8C2D807424
:10085000782E9AE3A92E209719F4DD2009F44EC0D2
:100860008C2D0E94C101811106C0BA94BB2051F2A7
:100870000E94D603F0CF8C171D0611F00CF08C2FC0
:100880009FB7F8949092E9002091E80025FD02C0FE
:100890009FBFE1CF282F30E0C21BD30B882029F067
:1008A0008150A0F01092F100FBCFF801C7FC0AC004
:1008B000815050F041914093F100FACF4491409320
:1008C000F10031968150D0F7020F131FDD2021F087
:1008D000A092E800D12CDCCF8091E80085FD07C014
:1008E000A092E800DD24D394209791F2F3CF2097D3
:1008F00079F6772069F2A092E800CACF5D9884E685
:1009000080938901C70180CFCF93DF93EC01809161
:100910001201882331F083E00E94EE0318161906B5
:1009200034F081E090E09B838A8380E090E0DF9167
:10093000CF910895DC01FB0112962C9112978481CE
:1009400095812817190641F491818081813A31F40B
:100950009D7F81E0913009F080E008958132E1F7D8
:100960009B3029F482811F968C9381E008959A3000
:1009700099F7828150968C93F8CFDC01FB0188E4D3
:10098000808389E4818384E482831D969C911D97F2
:100990009F709F5B93831D968D919C9124E096950B
:1009A00087952A95E1F78F708F5B848385E00895A2
:1009B000EF92FF920F931F93CF93DF93FB01208160
:1009C000213889F52381223271F5DC0112964C9190
:1009D000248135814217130631F58C01FC01C38552
:1009E000D485F12CE12C209791F04C815D816A81B6
:1009F0007B818E81811180E80E949B018F3F980747
:100A000059F0E80EF91E0990D881C02DECCF81E095
:100A1000D8011F968C93C701DF91CF911F910F9141
:100A2000FF90EF90089590E080E0F6CFCF93DF93B2
:100A3000CDB7DEB769970FB6F894DEBF0FBECDBF56
:100A4000FC01DB018C918F5F8C939E012D5F3F4FEA
:100A50008DE0D9011D928A95E9F729E0298384E088
:100A60008A8391E09D8383E08E832A8721E22B870E
:100A70009C879D879F8722E2288B27E02B8B25E090
:100A80002C8B8E8B20E430E0388F2F8B998F8281D6
:100A90008B8395858685998B8A8B838180688D8BE6
:100AA00049E150E0BE016F5F7F4F80E00E949B01F3
:100AB00069960FB6F894DEBF0FBECDBFDF91CF9120
:100AC0000895CF93DF9380916B01811167C081E01E
:100AD00080935E0180935F0124E631E030936101F1
:100AE0002093600110926301109262012DE131E0C8
:100AF00030935B0120935A011092660110926501B8
:100B000010926801109267018093690180936A01D5
:100B100081EC809364010E940C02FC018181909120
:100B20005E01482F490F5527551F483051059CF548
:100B3000A281B381109709F52AE531E0338322833E
:100B4000208120935C0180935D0180915F01820F81
:100B5000808320916001A22FB09161018A2F821BB6
:100B60008917C8F481813D91C82FD0E0C050DF4F74
:100B700038838F5F8183F2CFD90118962D913C91F4
:100B8000199721153105C1F72AE531E019963C93F3
:100B90002E931897D5CF81E080936B018AE591E081
:100BA000DF91CF9108958F929F92AF92BF92CF9293
:100BB000DF92EF92FF920F931F93CF93DF93CDB706
:100BC000DEB7ADB6BEB68091F1022DB73EB7281B99
:100BD00031090FB6F8943EBF0FBE2DBF8DB79EB73B
:100BE00001966C01E090B802F12C8091B4029091D2
:100BF000B502D601FC019F01281B390B2E153F05BC
:100C00001CF421912D93F7CF8091B902882359F1DB
:100C10008091B0029091B10228E097FD09C068E68A
:100C200071E00E9461106DE270E00E946110262F59
:100C30008091B2029091B30268E097FD08C068E627
:100C400071E00E9461106DE270E00E946110F60197
:100C5000EE0DFF1D90E1699FB0011124262B20832A
:100C6000F70131967F0186010E0D1F1D2091BE02F6
:100C70003091BF024091BC025091BD02609196023A
:100C8000709197028091BA0281700E94B900E80EBB
:100C9000F91E86010E0D1F1D2091C2023091C30264
:100CA0004091C0025091C1026091980270919902E6
:100CB0008091BA02869581700E94B900E80EF91EF3
:100CC00086010E0D1F1D2091C6023091C702409172
:100CD000C4025091C50260919A0270919B0280916A
:100CE000BA0282FB882780F90E94B900E80EF91E3B
:100CF00086010E0D1F1D2091CA023091CB0240913A
:100D0000C8025091C90260919C0270919D0280912D
:100D1000BA0283FB882780F90E94B900E80EF91E09
:100D200086010E0D1F1D2091CE023091CF02409101
:100D3000CC025091CD0260919E0270919F028091F1
:100D4000BA02829581700E94B900E80EF91E8601F0
:100D50000E0D1F1D2091D2023091D3024091D0027E
:100D60005091D1026091A0027091A1028091BA02CB
:100D700085FB882780F90E94B900E80EF91E8601DC
:100D80000E0D1F1D2091D6023091D7024091D40242
:100D90005091D5026091A2027091A3028091BA0293
:100DA00086FB882780F90E94B900E80EF91E8601AB
:100DB0000E0D1F1D2091DA023091DB024091D80206
:100DC0005091D9026091A4027091A5028091BA025B
:100DD000881F8827881F0E94B900E80EF91E860127
:100DE0000E0D1F1D2091DE023091DF024091DC02CA
:100DF0005091DD026091A8027091A9028091BB021E
:100E000081700E94B900E80EF91E86010E0D1F1DAB
:100E10002091E2023091E3024091E0025091E10220
:100E20006091A6027091A7028091BB0286958170A5
:100E30000E94B900E80EF91E86010E0D1F1D2091BB
:100E4000E6023091E7024091E4025091E5026091A0
:100E5000AA027091AB028091BB0282FB882780F9C5
:100E60000E94B900E80EF91E86010E0D1F1D20918B
:100E7000EA023091EB024091E8025091E902609160
:100E8000AC027091AD028091BB0283FB882780F990
:100E90000E94B9008E0D9F1D8601080F191F209119
:100EA000EE023091EF024091EC025091ED02609120
:100EB000AE027091AF028091BB02829581700E9458
:100EC000B9000E9461054C014091F1028091F0024D
:100ED00050E07A01FFEFEF1AFF0A2DB73EB72E1947
:100EE0003F090FB6F8943EBF0FBE2DBF0DB71EB71A
:100EF0000F5F1F4FEDB7FEB78183B601C8010196A2
:100F00000E94B411F4018381A701B80180640E949A
:100F1000EE030FB6F894BEBE0FBEADBEDF91CF910B
:100F20001F910F91FF90EF90DF90CF90BF90AF9007
:100F30009F908F9008951F920F920FB60F921124D9
:100F40008F939F938091E1009091E100937F909324
:100F5000E10083FF0FC01092E90091E09093EB0055
:100F60001092EC0092E39093ED001092A80198E0AB
:100F70009093F00082FF22C093E09093E90090915B
:100F8000F200992319F09AE39093E8009091890177
:100F9000992341F090918901915090938901911189
:100FA00001C05D9A9091A701992341F09091A7010A
:100FB00091509093A701911101C0289A84FF18C005
:100FC0008091E2008E7E81608093E2008091E1005A
:100FD0008F7E8093E10080918A018E7E8061809374
:100FE0008A019F918F910F900FBE0F901F901895BF
:100FF00080FFF7CF8091E2008E7E80618093E200D7
:101000008091E1008E7E8093E10080918A018E7E46
:101010008160E5CF1F920F920FB60F921124CF92ED
:10102000DF92EF92FF920F931F932F933F934F9373
:101030005F936F937F938F939F93AF93BF93EF9340
:10104000FF93CF93DF93CDB7DEB76C97DEBFCDBFF5
:101050001092E9008091E80083FF25C068E0CE018E
:1010600045960E94D20182EF8093E8008D8987FF28
:1010700039C09091E80090FFFCCF982F907609F04E
:1010800034C19E894F89588D2F89F88C911131C0B8
:10109000803861F580918B018093F1001092F1000E
:1010A0008EEF8093E8006C960FB6F894DEBF0FBE0B
:1010B000CDBFDF91CF91FF91EF91BF91AF919F9104
:1010C0008F917F916F915F914F913F912F911F91E0
:1010D0000F91FF90EF90DF90CF900F900FBE0F9089
:1010E0001F9018959EEF9093E800C7CF1092F100E3
:1010F000D5CF913059F48111D3CF4130510581F6CC
:1011000080918B018D7F80938B01CACF933049F4FE
:101110008111C6CF4130510519F680918B01826053
:10112000F2CF953041F48091E80080FFFCCF206839
:101130002093E300B5CF963009F0A9C00B8D1C8D2C
:1011400022E01092E9001092870110928601F212BB
:101150002EC010928501109284010E9420021F82ED
:1011600099E09983FA8291E09E8390EA98879AEFBA
:1011700099872091860130918701275F3F4F3C83FB
:101180002B838D831092E9001092870110928601C3
:10119000109385010093840149E050E0BE016F5F28
:1011A0007F4F80E00E949B010E94200279CF109324
:1011B0008501009384010E940C02DC0112960D91BE
:1011C0001C910115110509F451C1D801ED91FC9153
:1011D0000480F581E02DBE016B5E7F4FC80109954B
:1011E000009709F03EC1F80100851185EACFF3E0D0
:1011F000FF120EC08F89882309F440C0823061F449
:1012000040E86BE080E191E00E946801811148CFE5
:1012100081E28093EB0047CF813029F440E86BE016
:1012200084E091E0F1CF833099F70E940C02DC0159
:101230001296ED90FC908E010F5F1F4F6801E11434
:10124000F10479F0D701ED91FC910680F781E02D52
:10125000B801C7010995080F111DF701E084F18459
:10126000EECFD8011C92F60101900020E9F73197EA
:10127000BF016C197D0940E0C601C6CF6EEE70E07B
:10128000FB01449150E080E80E949B0109CF973018
:1012900009F4BECF983021F481E08093F10000CFB3
:1012A000993009F0FDCE837009F0B2CFE1E0F1E0B2
:1012B00081E031E096E32191222371F08093E900EF
:1012C0003093EB00DF0111972C912093EC00909369
:1012D000ED008F5F873079F78EE78093EA001092F8
:1012E000EA008F898093A801DBCE8B8D9C8D1092B4
:1012F000E9001092870110928601909385018093F6
:101300008401898D811192C08E899D89913A49F419
:10131000813209F07DCF47E050E06BE071E080E082
:10132000B3CF913209F074CF833269F48F89988DED
:10133000B0E0A0E08093070190930801A093090119
:10134000B0930A01ADCE803269F48091E80082FF4B
:10135000FCCF67E08BE091E00E94D2018BEF80939D
:10136000E8009ECE823209F09BCE8F8980931201D5
:10137000EEEFFFE7859194918B3F9C4D51F1E0E0BA
:10138000F8E080910B0190910C01A0910D01B091BA
:101390000E01803B9440A105B105F1F4809112014A
:1013A00080FD1AC0EE3F8AE0F80789F587E797E7E6
:1013B00091838083809160008093880188E19BE025
:1013C0000FB6F894A895809360000FBE90936000CC
:1013D00067CEEEEFFAE0D5CF8081918187379747CE
:1013E00009F05ECEA89580916000886180936000CE
:1013F0008091880180936000EE3F2AE0F20789F037
:101400008091FE0A9091FF0A9183808349CE80816A
:1014100091818737980751F29093FF0A8093FE0AD3
:10142000C5CF1092FF0A1092FE0A3ACE0E940C021B
:10143000DC0112960D911C910115110509F4E8CEFD
:10144000D801ED91FC910190F081E02DBE016B5E21
:101450007F4FC8010995811123CEF80100851185C0
:10146000EBCF181619060CF41BCED2CEF1E0FF120A
:10147000BECE62EF70E004CF1F920F920FB60F92B4
:1014800011242F933F934F935F936F937F938F9389
:101490009F93AF93BF93EF93FF9389EA91E00E94EC
:1014A000A202FF91EF91BF91AF919F918F917F9198
:1014B0006F915F914F913F912F910F900FBE0F90C1
:1014C0001F9018951F920F920FB60F9211242F9311
:1014D0008F939F93EF93FF93E091B901F091BA013D
:1014E0008081E091BF01F091C00182FD1BC090811D
:1014F0008091C2018F5F8F732091C301821741F0E9
:10150000E091C201F0E0E755FE4F958F8093C20154
:10151000FF91EF919F918F912F910F900FBE0F90A0
:101520001F9018958081F4CF1F920F920FB60F92E3
:1015300011242F933F938F939F93AF93BF938091E9
:101540008C0190918D01A0918E01B0918F0130910D
:10155000730123E0230F2D3758F50196A11DB11D0E
:101560002093730180938C0190938D01A0938E0141
:10157000B0938F018091740190917501A0917601D3
:10158000B09177010196A11DB11D809374019093D4
:101590007501A0937601B0937701BF91AF919F91B0
:1015A0008F913F912F910F900FBE0F901F90189524
:1015B00026E8230F0296A11DB11DD2CFBF92CF9274
:1015C000DF92EF92FF920F931F93CF93DF93CDB7EC
:1015D000DEB7C659D1090FB6F894DEBF0FBECDBF36
:1015E0001092AC011092AB0188EE93E0A0E0B0E065
:1015F0008093AD019093AE01A093AF01B093B00181
:1016000029E231E03093AA012093A9012DEC30E0CA
:101610003093B6012093B5012CEC30E03093B80143
:101620002093B70128EC30E03093BA012093B90140
:1016300029EC30E03093BC012093BB012AEC30E070
:101640003093BE012093BD012EEC30E03093C001F9
:101650002093BF011092C2011092C3011092C401E5
:101660001092C501109249021092480280934A02DA
:1016700090934B02A0934C02B0934D028BE391E008
:1016800090934702809346028FEF9FEF909353020F
:10169000809352021092B5021092B4021092B802D6
:1016A0001092BD021092BC028FEF93E09093BF02A4
:1016B0008093BE021092C1021092C0029093C302A6
:1016C0008093C2021092C5021092C4029093C70286
:1016D0008093C6021092C9021092C8029093CB0266
:1016E0008093CA021092CD021092CC029093CF0246
:1016F0008093CE021092D1021092D0029093D30226
:101700008093D2021092D5021092D4029093D70205
:101710008093D6021092D9021092D8029093DB02E5
:101720008093DA021092DD021092DC029093DF02C5
:101730008093DE021092E1021092E0029093E302A5
:101740008093E2021092E5021092E4029093E70285
:101750008093E6021092E9021092E8029093EB0265
:101760008093EA021092ED021092EC029093EF0245
:101770008093EE0243E04093F00230E23093B702F0
:1017800022E02093B902FFEFF093BA024093BB022C
:1017900065E0698391E09A8389E08B83A4E0AC8360
:1017A000E1EAED839E8355E85F83488769878A87EE
:1017B00049E14B879C8749E24D873E8705E10F87CA
:1017C000188A15E2198B9A8B55E75B8B9C8B45E940
:1017D0004D8B3E8B35E53F8B188EB5E6B98F1A8E53
:1017E00031E83B8F2C8F6D8F9E8F8F8F79E3B72ED3
:1017F000B8A209A31AA21BA377E0C72ECCA275E357
:101800007DA31EA20F2EF6E4DF2EF02DDFA20F2EF9
:10181000FBE3EF2EF02DE8A699A7BAA70F2EF4E16F
:10182000FF2EF02DFBA65CA7ADA74EA79FA738AB58
:1018300029AB8AABBBAA0CAB1DAA1EABCFAA78AF53
:1018400019AEDAAEEBAE9CAFBDAFFEAE5FAF219688
:10185000AFAF219722964FAF229723969FAF239742
:1018600024963FAF249725962FAF259726968FAFC6
:10187000269727969FAF2797A6E1FA2E2896FFAEC8
:10188000289729969FAF299700E82A960FAF2A97A5
:1018900016E22B961FAF2B972C96FFAF2C97BFE726
:1018A0002D96BFAF2D972E965FAF2E97A0E12F9666
:1018B000AFAF2F9760964FAF60976894EE24E3F830
:1018C0006196EFAE61976296EFAF629763961FAE37
:1018D000639764968FAF64970F2EF0E3EF2EF02D91
:1018E0006596EFAE659766968FAF66970F2EF1E31C
:1018F000EF2EF02D6796EFAE679768968FAF6897DB
:101900000F2EF2E3EF2EF02D6996EFAE69976A96EF
:101910008FAF6A970F2EF3E3EF2EF02D6B96EFAE9D
:101920006B976C968FAF6C970F2EF4E3EF2EF02D24
:101930006D96EFAE6D976E968FAF6E976F967FAF89
:101940006F97A0968FAFA09776E3A1967FAFA197F0
:10195000A2968FAFA29777E3A3967FAFA397A496A3
:101960003FAFA497A5962FAFA59770ECA6967FAF33
:10197000A697A7966FAFA797A8962FAFA897A996F7
:10198000FFAEA997AA969FAFAA97AB960FAFAB975A
:10199000AC961FAFAC97AD96FFAFAD97AE96BFAF0D
:1019A000AE97AF965FAFAF97E096AFAFE097E19697
:1019B0004FAFE197E2962FAFE297E396EFAFE39751
:1019C000E4961FAEE497E5968FAFE5979AEBE6961F
:1019D0009FAFE697E7968FAFE7978BEBE8968FAFD1
:1019E000E897E9963FAFE997EA962FAFEA97EB962B
:1019F0007FAFEB97EC967FAFEC978BE790E00E9480
:101A00008F107C018BE7FE013196D70101900D927A
:101A10008A95E1F787E090E00E948F108C01DC014D
:101A200011961C921E921396FC92EE9212978BE7DF
:101A300090E015969C938E93149716961C920E9494
:101A40006105FC01A385B485109709F07BC014875C
:101A5000038785859685D80114962D913C91820F38
:101A6000931F968785879091B702892F86958695D3
:101A70008695977009F06EC08093B8021091B802F5
:101A8000812F90E00E948F109093B5028093B40252
:101A900081E09091B902911101C080E01C5E810F3C
:101AA0008093F1021092970210929602109299027E
:101AB0001092980210929B0210929A0210929D022C
:101AC00010929C0210929F0210929E021092A1020C
:101AD0001092A0021092A3021092A2021092A502EC
:101AE0001092A4021092A7021092A6021092A902CC
:101AF0001092A8021092AB021092AA021092AD02AC
:101B00001092AC021092AF021092AE028FEF9FEFD4
:101B10009093B1028093B0029093B3028093B2028B
:101B200090E080E02091B80228171906A9F0A4F0EF
:101B3000E091B402F091B502E80FF91F108201960E
:101B4000F1CFDC018D919C9111970097D1F70D9306
:101B50001C937FCF8F5F90CFCA56DF4F0FB6F8949C
:101B6000DEBF0FBECDBFDF91CF911F910F91FF90D0
:101B7000EF90DF90CF90BF900895789484B5826005
:101B800084BD84B5816084BD85B5826085BD85B521
:101B9000816085BD80916E00816080936E0010929F
:101BA000810080918100826080938100809181001A
:101BB00081608093810080918000816080938000AB
:101BC000809191008260809391008091910081606A
:101BD000809391008091900081608093900080912B
:101BE000C10084608093C1008091C10082608093B5
:101BF000C1008091C10081608093C1008091C300C9
:101C000081608093C3008091C00082608093C00097
:101C10008091C20081608093C20080917A008460CC
:101C200080937A0080917A00826080937A0080911C
:101C30007A00816080937A0080917A008068809336
:101C40007A001092A80110928B0110928A01809163
:101C5000D70081608093D70080EA8093D80089B54F
:101C6000806189BD89B5826089BD09B400FEFDCF60
:101C70000E94D6038091D8008F7C80618093D80029
:101C80008091E000807F8093E0008091E1008E7E73
:101C90008093E1008DE08093E200559A209A81E0E4
:101CA0008093B6020E94D30521E83FEF3093BD0236
:101CB0002093BC028FE790E09093BF028093BE0216
:101CC0003093C1022093C0029093C3028093C2025A
:101CD0003093C5022093C4029093C7028093C6023A
:101CE0003093C9022093C8029093CB028093CA021A
:101CF0003093CD022093CC029093CF028093CE02FA
:101D00003093D1022093D0029093D3028093D202D9
:101D10001092D5021092D4022FEF30E03093D70208
:101D20002093D6021092D9021092D8023093DB028F
:101D30002093DA021092DD021092DC023093DF026F
:101D40002093DE021092E1021092E0023093E3024F
:101D50002093E2029093A9028093A8028091B60298
:101D600081110E94D3058FE790E09093AB0280939E
:101D7000AA028091B60281110E94D3058FE790E0FC
:101D80009093AD028093AC028091B60281110E94C3
:101D9000D3058FE790E09093AF028093AE028091DD
:101DA000B60281110E94D305E091B901F091BA0108
:101DB00082E08083E091B501F091B6011082E0915C
:101DC000B701F091B80183E380831092C101E091E3
:101DD000BD01F091BE0186E08083E091BB01F091EE
:101DE000BC01808180618083E091BB01F091BC01E6
:101DF000808188608083E091BB01F091BC0180818B
:101E000080688083E091BB01F091BC0180818F7D6F
:101E100080834CE050E069E471E086E492E00E9447
:101E2000840442E050E066E571E086E492E00E94BE
:101E30008404C0E0D0E012E089EA91E00E948202CE
:101E4000892B31F189EA91E00E9460029091A6010C
:101E5000E92FF0E0EC56FE4F80839F5F923108F04F
:101E6000D2C09093A601E091A601E23088F0F0E0A4
:101E7000EC56FE4FDF0112978C91853149F4119693
:101E80008C91873329F480818A3F11F41093A60145
:101E90002FB7F89480918C0190918D01A0918E01C3
:101EA000B0918F012FBF40919001509191016091AD
:101EB000920170919301481759076A077B0708F050
:101EC00097C080919701082E000C990B9093970270
:101ED000809396028091B60281110E94D305809171
:101EE0009801082E000C990B909399028093980208
:101EF0008091B60281110E94D305809199018F577C
:101F0000990B90939B0280939A028091B602811163
:101F10000E94D30580919A01082E000C990B909392
:101F20009D0280939C028091B60281110E94D3058C
:101F300080919B0190E090939F0280939E028091FC
:101F4000B60281110E94D30580919C0190E090938C
:101F5000A1028093A0028091B60281110E94D30554
:101F600080919D0190E09093A3028093A2028091C2
:101F7000B60281110E94D30580919E0190E090935A
:101F8000A9028093A8028091B60281110E94D30514
:101F900080919F0190E09093A7028093A602809188
:101FA000B60281110E94D3058091A00190E0909328
:101FB000A5028093A4028091B60281110E94D305EC
:101FC0000E94D3052FB7F89480918C0190918D01D8
:101FD000A0918E01B0918F012FBF0F96A11DB11D51
:101FE0008093900190939101A0939201B0939301FB
:101FF000209709F421CF0E948E02882309F41CCF78
:102000000E94000019CF1092A6012DCF052E97FB3C
:102010001EF400940E941D1057FD07D00E9430103E
:1020200007FC03D04EF40C941D105095409530954C
:1020300021953F4F4F4F5F4F089590958095709534
:1020400061957F4F8F4F9F4F08950E945210A59F1B
:10205000900DB49F900DA49F800D911D11240895A3
:10206000A1E21A2EAA1BBB1BFD010DC0AA1FBB1F9C
:10207000EE1FFF1FA217B307E407F50720F0A21B0E
:10208000B30BE40BF50B661F771F881F991F1A947B
:1020900069F760957095809590959B01AC01BD01A5
:1020A000CF010895A29FB001B39FC001A39F700DFF
:1020B000811D1124911DB29F700D811D1124911D50
:1020C000089597FB072E16F4009407D077FD09D0EA
:1020D0000E94751007FC05D03EF4909581959F4FA6
:1020E0000895709561957F4F0895AA1BBB1B51E120
:1020F00007C0AA1FBB1FA617B70710F0A61BB70B78
:10210000881F991F5A95A9F780959095BC01CD011C
:102110000895EE0FFF1F0590F491E02D09940F93A1
:102120001F93CF93DF938230910510F482E090E00B
:10213000E091F402F091F50230E020E0B0E0A0E0A0
:10214000309799F42115310509F44AC0281B390B41
:1021500024303105D8F58A819B816115710589F19B
:10216000FB0193838283FE0111C040815181028172
:10217000138148175907E0F04817590799F4109749
:1021800061F012960C93129713961C933296CF011E
:10219000DF91CF911F910F9108950093F402109356
:1021A000F502F4CF2115310551F04217530738F0ED
:1021B000A901DB019A01BD01DF01F801C1CFEF01E7
:1021C000F9CF9093F5028093F402CDCFFE01E20F98
:1021D000F31F819391932250310939832883D7CFFC
:1021E0002091F2023091F302232B41F4209115014A
:1021F000309116013093F3022093F20220911301E3
:10220000309114012115310541F42DB73EB74091AD
:10221000170150911801241B350BE091F202F09147
:10222000F302E217F307A0F42E1B3F0B2817390720
:1022300078F0AC014E5F5F4F2417350748F04E0F22
:102240005F1F5093F3024093F202819391939FCFCB
:10225000F0E0E0E09CCFCF93DF930097E9F0FC0142
:10226000329713821282A091F402B091F502ED012F
:1022700030E020E01097A1F420813181820F931F7C
:102280002091F2023091F3022817390709F061C05A
:10229000F093F302E093F202DF91CF910895EA0107
:1022A000CE17DF07E8F54A815B819E014115510594
:1022B000B1F7E901FB83EA8349915991C40FD51F16
:1022C000EC17FD0761F4808191810296840F951FC0
:1022D000E90199838883828193819B838A83F0E0DB
:1022E000E0E012968D919C9113970097B9F52D918E
:1022F0003C911197CD010296820F931F2091F2021B
:102300003091F3022817390739F6309751F51092BA
:10231000F5021092F402B093F302A093F202BCCF44
:10232000D383C28340815181840F951FC817D90779
:1023300061F44E5F5F4F88819981480F591F518327
:1023400040838A819B81938382832115310509F023
:10235000B0CFF093F502E093F4029ECFFD01DC01D3
:10236000C0CF13821282D7CFFB01DC0102C00190E3
:0E2370000D9241505040D8F70895F894FFCFD9
:10237E0000C18081000000FFFFFFFF00E1000000B0
:10238E000000000000F6028000000000009A041613
:10239E0005D804BD0400000000C302DF0151020F86
:1023AE0003820260027402000000002F03840450B6
:1023BE000345039703550373037561727420737499
:0A23CE006172746564000D0A0000DE
:00000001FF
